:100000000C9411010C94F4270C9421280C944E2884
:100010000C947B280C9439010C9439010C9439010F
:100020000C9439010C9439010C94381C0C9439014E
:100030000C9468270C9439010C9439010C94390103
:100040000C9439010C94EE260C9439010C9439016E
:100050000C9439010C9489260C9439010C94B52820
:100060000C9439010C94BB220C9439010C94390185
:100070000C9439010C9439010C9439010C94390118
:100080000C9439010C9439010C9439010C94390108
:100090000C9439010C9439010C9439010C943901F8
:1000A0000C9439010C9439010C943901120110019E
:1000B00002000008EB034A200100000100010902D0
:1000C0003E0002010080320904000001020201002A
:1000D000052400100104240204052406000107057C
:1000E000820308000209040100020A00000007055B
:1000F0000402100000070583021000000403090435
:1001000026034100560052002000430044004300F3
:10011000200042006F006F0074006C006F006100EF
:100120006400650072000000010000000024002748
:10013000002A002D00300000000000250028002BC0
:10014000002E003100000000002300260029002CB2
:10015000002F000404040204040304040202020247
:100160000206060606060602050302040504080147
:10017000402080400240800104080280402010029C
:10018000011040802010040000000C00000000005E
:10019000000000000000000000000000000B000054
:1001A0000007060504010E0F1000010000040506FB
:1001B00007202122232425271E1FAF06BB07230863
:1001C0008B08F3085B09C309BB0A170B210C7D0CD4
:1001D0004B0DA00D080E560F6E10D6103E11A61135
:1001E000FF120C1319132613A413BE14E514D71908
:1001F000501BAA2111223C23A828522CB406C00768
:1002000028089008F8086009C809C00A1C0B260CC9
:10021000820C500DA50D0D0E5B0F7310DB104311FA
:10022000AB1111241FBECFEFDAE0DEBFCDBF15E06A
:10023000A0E0B1E0E6E7F4E602C005900D92A03040
:10024000B107D9F717E0A0E0B5E001C01D92A73CC7
:10025000B107E1F711E0CCEFD1E004C02297FE0135
:100260000E94002DCA3BD107C9F70E94D72B0C94DE
:100270002E320C940000A0E2B0E0E1E4F1E00C9436
:10028000C72C69837A838B839C832D833E834F8322
:100290005887CE010196BE01675F7F4F0E941D0502
:1002A000CE010596BE016F5E7F4F0E941D059985A8
:1002B000923078F089898230C0F0943019F482301D
:1002C00041F4CBC0843019F4923079F4C6C0923036
:1002D00051F481E02A859A89291709F480E08A87F8
:1002E000CE010996BCC0823051F481E02A859A89FA
:1002F000291709F480E08A8BCE014196B0C06D8445
:100300007E848F849888ED88FE880F89188DE0E2BE
:10031000F0E080E090E0DC01AA24BB24650120E04D
:1003200030E0A901B3016170707061157105D1F001
:100330002E0D3F1D401F511F15012601280E391E8D
:100340004A1E5B1E81E090E0A0E0B0E02E153F0564
:100350004007510718F080E090E0DC01820D931D0A
:10036000A41DB51DAA0CBB1CCC1CDD1C17FF09C0AD
:1003700061E0262E312C412C512CA228B328C42810
:10038000D528319749F0EE0CFF1C001F111F9694E1
:10039000879477946794C6CF6B897C89EB85FC85BD
:1003A0006E0F7F1F6E5F7F4F7C8F6B8F61E0EA85E2
:1003B0007A89E71709F460E06A8F6B8D7C8D10C035
:1003C000FC01E170F070309729F05695479537950C
:1003D00027955068B695A795979587956F5F7F4F3E
:1003E000B7FDEECF0CC0880F991FAA1FBB1F57FD8A
:1003F0008160220F331F441F551F615070408030B1
:10040000E0E09E07E0E0AE07E0E4BE0760F36B8F3C
:100410007C8F6FE7E62EF12C012D112DE822F922B9
:100420000A231B2360E4E616F1040105110561F4BB
:1004300087FD0AC0211531054105510529F0805C71
:100440009F4FAF4FBF4F80788D8F9E8FAF8FB8A3D8
:1004500083E0898FCE01499602C08DE292E00E942E
:100460004F04A096E2E10C94E32CA8E1B0E0EBE3AA
:10047000F2E00C94CF2C69837A838B839C832D8349
:100480003E834F8358878E01075F1F4FCE01019631
:10049000B8010E941D0581E1E82EF12CEC0EFD1E35
:1004A000CE010596B7010E941D059985923008F48A
:1004B00083C08989823008F47BC02A853A89232742
:1004C0002A87943011F0923021F4981709F06CC00B
:1004D00071C0843039F41D861E861F86188A1C86DA
:1004E0001B866AC0823019F484E0898765C08B85D9
:1004F0009C852B893C89821B930B9C878B872D8540
:100500003E854F855889ED88FE880F89188D2E15F8
:100510003F054007510738F4220F331F441F551F72
:1005200001979C878B876FE170E0A12CB12CC12CC7
:10053000A0E4DA2E80E090E0DC012E153F054007B4
:10054000510740F08A299B29AC29BD292E193F0962
:10055000400B510BD694C794B794A794220F331F26
:10056000441F551F6150704041F76FE7E62EF12C94
:10057000012D112DE822F9220A231B2360E4E6163F
:10058000F1040105110561F487FD0AC0211531054B
:100590004105510529F0805C9F4FAF4FBF4F8078D8
:1005A0008D879E87AF87B88B8E01075F1F4F04C072
:1005B000870102C00DE212E0C8010E944F04689654
:1005C000EAE00C94EB2CA8E1B0E0E9EEF2E00C9448
:1005D000D32C69837A838B839C832D833E834F83C3
:1005E00058878E01075F1F4FCE010196B8010E9408
:1005F0001D0581E1E82EF12CEC0EFD1ECE010596C5
:10060000B7010E941D058985823040F089898230BA
:1006100028F0C801B7010E94860501C08FEF6896D7
:10062000E6E00C94EF2CA8E1B0E0E9E1F3E00C94F3
:10063000D32C69837A838B839C832D833E834F8362
:1006400058878E01075F1F4FCE010196B8010E94A7
:100650001D0581E1E82EF12CEC0EFD1ECE01059664
:10066000B7010E941D058985823040F0898982305A
:1006700028F0C801B7010E94860501C081E0689694
:10068000E6E00C94EF2CA8E0B0E0E9E4F3E00C9491
:10069000D32C7B018C0183E08983D801C701882793
:1006A000B7FD83959927AA27BB27282F8A83E114B2
:1006B000F1040105110519F482E0898337C08EE148
:1006C00090E09C838B83222389F080E0E81680E011
:1006D000F80680E0080780E8180769F11095009592
:1006E000F094E094E11CF11C011D111DED82FE82CD
:1006F0000F831887C801B7010E94F5039C012150A0
:1007000030401216130694F4022E04C0EE0CFF1CA7
:10071000001F111F0A94D2F7ED82FE820F83188703
:100720008EE190E0821B930B9C838B83CE0101961C
:100730000E944F0404C060E070E080E09FEC2896C7
:10074000E6E00C94EF2CACE0B0E0E9EAF3E00C94C6
:10075000D72C69837A838B839C83CE010196BE015B
:100760006B5F7F4F0E941D058D81823081F1823049
:1007700070F1843021F48E81882369F10AC02F81C1
:10078000388537FD24C06E812F3131053CF066235A
:1007900011F120E030E040E050E821C08EE190E02F
:1007A000821B930B29853A854B855C8504C0569541
:1007B0004795379527958A95D2F7662381F050950E
:1007C0004095309521953F4F4F4F5F4F08C020E037
:1007D00030E0A90104C02FEF3FEF4FEF5FE7B90111
:1007E000CA012C96E2E00C94F32CAF92BF92CF9208
:1007F000DF92EF92FF920F931F937B018C0180E0B9
:10080000E81680E0F80681E0080780E0180758F451
:10081000EFEFEE16F1040105110509F090F480E008
:1008200090E0DC0117C0F0E0EF16F0E0FF06F0E02A
:100830000F07F1E01F0750F480E190E0A0E0B0E086
:1008400009C088E090E0A0E0B0E004C088E190E05A
:10085000A0E0B0E020E230E040E050E0281B390B9F
:100860004A0B5B0B5701680104C0D694C794B79438
:10087000A7948A95D2F7D601C5018B5C9D4FFC01E8
:100880008081281B310941095109C9011F910F912C
:10089000FF90EF90DF90CF90BF90AF900895EF92D0
:1008A000FF920F931F93CF93DF93FC012481358137
:1008B0004681578161818081823020F44061EFEF71
:1008C000F0E0A3C0843009F49BC0823009F492C0E8
:1008D000211531054105510509F48FC00280F381CE
:1008E000E02D8FEFE238F8070CF05AC0C2E8DFEFD6
:1008F000CE1BDF0BCA31D1056CF579018A010C2EB4
:1009000004C016950795F794E7940A94D2F781E00E
:1009100090E0A0E0B0E00C2E04C0880F991FAA1F41
:10092000BB1F0A94D2F70197A109B109822393232F
:10093000A423B52321E030E040E050E00097A1057A
:10094000B10519F420E030E0A9012E293F29402B00
:10095000512B03C020E030E0A901DA01C9018F77F3
:100960009070A070B07080349105A105B10539F484
:1009700027FF09C0205C3F4F4F4F5F4F04C0215CF1
:100980003F4F4F4F5F4FE1E0F0E0203080E038070D
:1009900080E0480780E4580728F5E0E0F0E022C056
:1009A000E038F1056CF5E158FF4FDA01C9018F77A6
:1009B0009070A070B07080349105A105B10539F434
:1009C00027FF09C0205C3F4F4F4F5F4F04C0215CA1
:1009D0003F4F4F4F5F4F57FF05C05695479537958F
:1009E0002795319687E056954795379527958A95AF
:1009F000D1F70BC0E0E0F0E005C0E0E0F0E005C0BA
:100A0000EFEFF0E020E030E0A9018E2F87958827F6
:100A10008795942F9F77679566276795E695E22ED1
:100A2000A92FA82BFE2FF62B622F732F8A2F9F2F13
:100A3000CDB7DEB7E6E00C94EF2CDC01FB012C9186
:100A400011963C91119712968C911297482F4F77DF
:100A500050E0982F991F9927991F13966C9113971F
:100A6000862F880F892B90E0661F6627661F61839B
:100A7000009739F5211531054105510511F482E042
:100A800029C082E89FEF9383828367E0220F331FA0
:100A9000441F551F6A95D1F783E0808309C0220F58
:100AA000331F441F551F8281938101979383828353
:100AB000203080E0380780E0480780E4580778F36A
:100AC00020C08F3F910579F421153105410551056D
:100AD00019F484E08083089544FF03C081E080839B
:100AE00010C010820EC08F5790409383828383E0A2
:100AF000808387E0220F331F441F551F8A95D1F74B
:100B0000506424833583468357830895FC01DB01B9
:100B10009081923008F449C08C91823008F445C02D
:100B2000943051F461818430B1F511962C91119774
:100B300030E0261B310941C0843021F0923041F46D
:100B40008230B1F111968C9111978823A1F12DC0BB
:100B50006181823001F111968C9111976817D9F457
:100B60002281338112968D919C911397821793075E
:100B700094F028173907BCF02481358146815781CC
:100B800014968D919D910D90BC91A02D8217930785
:100B9000A407B50718F4662341F00DC028173907DC
:100BA0004A075B0728F4662331F021E030E005C0F6
:100BB00020E030E002C02FEF3FEFC9010895CF934E
:100BC000DF93EB0100D000D000D0EDB7FEB7319637
:100BD00028813981ADB7BEB712963C932E931197F9
:100BE00020E031E033832283DC011C968D919C91BF
:100BF0001D97958384830E94812F88819981049613
:100C0000998388838DB79EB706960FB6F8949EBFDA
:100C10000FBE8DBFDF91CF910895EF92FF920F939A
:100C20001F93DF93CF9300D000D00F92CDB7DEB7E4
:100C30007C018B01DB01ED91FC911D828081918112
:100C4000A281B38189839A83AB83BC83CE01019651
:100C500060E070E04AE050E00E94372EF7017587AF
:100C60006487D8018D919C911197049611969C935D
:100C70008E930F900F900F900F900F90CF91DF9168
:100C80001F910F91FF90EF9008950E94F8149C011E
:100C90002C5F3F4FC90108952DE533E0FC013183FE
:100CA00020830E94F2140895CF93DF93EC018DE529
:100CB00093E099838883CE010E94F214CE010E94B2
:100CC0001F22DF91CF910895CF93DF93BC01C0E045
:100CD000D5E0CE010E94B415CE01DF91CF910895E9
:100CE000CF92DF92EF92FF920F931F93CF93DF93F8
:100CF000EC01FB018A01690165E070E041E050E030
:100D00009F01EE24FF240E9403158DE593E0998353
:100D10008883DD86CC86DF91CF911F910F91FF9064
:100D2000EF90DF90CF9008958130910559F480E0E5
:100D300095E060E070E040E050E020E030E00E94AC
:100D400070060895009751F48DE593E090930105A6
:100D50008093000580E095E00E94F214089581E000
:100D600090E00E949406089580E090E00E9494062E
:100D70000895CF93DF939C01EB018DB79EB7089741
:100D80000FB6F8949EBF0FBE8DBFADB7BEB711961C
:100D900088819981EDB7FEB79283818385E091E0E8
:100DA00013969C938E931297F901848595851596D9
:100DB0009C938E9314978685978517969C938E9314
:100DC00016970E94812F888199810696998388833E
:100DD0008DB79EB708960FB6F8949EBF0FBE8DBF15
:100DE000DF91CF910895CF92DF92EF92FF920F9310
:100DF0001F93DF93CF93CDB7DEB728970FB6F89444
:100E0000DEBF0FBECDBF6C018B01FB01E080F18026
:100E10001B821886F70180819181A281B3818C8326
:100E20009D83AE83BF83CE01049660E070E04AE00C
:100E300050E00E94372EF60175876487F7018481A0
:100E400095819A838983CE01019660E070E04AE043
:100E500050E00E94372EF60177876687F80180817F
:100E6000918108969183808328960FB6F894DEBF0F
:100E70000FBECDBFCF91DF911F910F91FF90EF90EB
:100E8000DF90CF9008950E94F8149C012A5F3F4F95
:100E9000C90108952BE633E0FC01318320830E94D1
:100EA000F2140895CF93DF93EC018BE693E09983DE
:100EB0008883CE010E94F214CE010E941F22DF918E
:100EC000CF910895CF93DF93BC01CEE0D5E0CE0162
:100ED0000E94B415CE01DF91CF910895AF92BF92D9
:100EE000CF92DF92EF92FF920F931F93CF93DF93F6
:100EF000EC01FB01DA015901680164E070E041E0B6
:100F000050E09F018D01EE24FF240E9403158BE623
:100F100093E099838883BD86AC86DF86CE86DF9199
:100F2000CF911F910F91FF90EF90DF90CF90BF90E6
:100F3000AF9008950F931F938130910569F48EE06F
:100F400095E060E070E040E050E020E030E000E05C
:100F500010E00E946E070CC0009751F48BE693E0FE
:100F600090930F0580930E058EE095E00E94F21499
:100F70001F910F91089581E090E00E949A070895D3
:100F800080E090E00E949A070895089508950E94D5
:100F9000F814089529E733E0FC01318320830E948F
:100FA000F2140895CF93DF93EC0189E793E09983DE
:100FB0008883CE010E94F214CE010E941F22DF918D
:100FC000CF910895CF93DF93BC01CEE1D5E0CE0160
:100FD0000E94B415CE01DF91CF910895EF92FF9258
:100FE0000F931F93CF93DF93EC019B018A0162E083
:100FF00070E041E050E0EE24FF240E94031589E7F1
:1010000093E099838883DF91CF911F910F91FF9097
:10101000EF9008958130910549F48EE195E060E00C
:1010200070E040E050E00E94EE070895009751F410
:1010300089E793E090931F0580931E058EE195E06C
:101040000E94F214089581E090E00E940A08089539
:1010500080E090E00E940A080895089508950E9493
:10106000F814089527E833E0FC01318320830E94BF
:10107000F2140895CF93DF93EC0187E893E099830E
:101080008883CE010E94F214CE010E941F22DF91BC
:10109000CF910895CF93DF93BC01CAE2D5E0CE0192
:1010A0000E94B415CE01DF91CF910895EF92FF9287
:1010B0000F931F93CF93DF93EC019B018A0161E0B3
:1010C00070E041E050E0EE24FF240E94031587E821
:1010D00093E099838883DF91CF911F910F91FF90C7
:1010E000EF9008958130910549F48AE295E060E03F
:1010F00070E040E050E00E9456080895009751F4D7
:1011000087E893E090932B0580932A058AE295E087
:101110000E94F214089581E090E00E947208089500
:1011200080E090E00E9472080895089508950E945A
:10113000F814089525E933E0FC01318320830E94EF
:10114000F2140895CF93DF93EC0185E993E099833E
:101150008883CE010E94F214CE010E941F22DF91EB
:10116000CF910895CF93DF93BC01C6E3D5E0CE01C4
:101170000E94B415CE01DF91CF910895EF92FF92B6
:101180000F931F93CF93DF93EC019B018A0163E0E0
:1011900070E041E050E0EE24FF240E94031585E951
:1011A00093E099838883DF91CF911F910F91FF90F6
:1011B000EF9008958130910549F486E395E060E071
:1011C00070E040E050E00E94BE080895009751F49E
:1011D00085E993E0909337058093360586E395E0A3
:1011E0000E94F214089581E090E00E94DA080895C8
:1011F00080E090E00E94DA080895089508950E9422
:10120000F814089523EA33E0FC01318320830E941F
:10121000F2140895CF93DF93EC0183EA93E099836E
:101220008883CE010E94F214CE010E941F22DF911A
:10123000CF910895CF93DF93BC01C2E4D5E0CE01F6
:101240000E94B415CE01DF91CF910895EF92FF92E5
:101250000F931F93CF93DF93EC019B018A016BECFB
:1012600070E041E050E0EE24FF240E94031583EA81
:1012700093E099838883DF91CF911F910F91FF9025
:10128000EF9008958130910549F482E495E060E0A3
:1012900070E040E050E00E9426090895009751F464
:1012A00083EA93E0909343058093420582E495E0BE
:1012B0000E94F214089581E090E00E94420908958E
:1012C00080E090E00E9442090895089508950E94E8
:1012D000F814089521EB33E0FC01318320830E9450
:1012E000F2140895CF93DF93EC0181EB93E099839F
:1012F0008883CE010E94F214CE010E941F22DF914A
:10130000CF910895CF93DF93BC01CEE4D5E0CE0119
:101310000E94B415CE01DF91CF910895EF92FF9214
:101320000F931F93CF93DF93EC019B018A016AEC2B
:1013300070E041E050E0EE24FF240E94031581EBB1
:1013400093E099838883DF91CF911F910F91FF9054
:10135000EF9008958130910549F48EE495E060E0C6
:1013600070E040E050E00E948E090895009751F42B
:1013700081EB93E090934F0580934E058EE495E0CA
:101380000E94F214089581E090E00E94AA09089555
:1013900080E090E00E94AA090895CF93DF93EB01CB
:1013A00000D000D000D0EDB7FEB73196288139814A
:1013B000ADB7BEB712963C932E9311972EE031E055
:1013C00033832283DC011C968D919C911D9795831C
:1013D00084830E94812F88819981049699838883D0
:1013E0008DB79EB706960FB6F8949EBF0FBE8DBF01
:1013F000DF91CF910895EF92FF920F931F93DF93A8
:10140000CF9300D000D00F92CDB7DEB77C018B0117
:10141000DB01ED91FC911D8280819181A281B381DC
:1014200089839A83AB83BC83CE01019660E070E030
:101430004AE050E00E94372EF70175876487D80193
:101440008D919C911197049611969C938E930F9079
:101450000F900F900F900F90CF91DF911F910F91F0
:10146000FF90EF9008950E94F8149C012C5F3F4F6D
:10147000C90108952FEB33E0FC01318320830E94E2
:10148000F2140895CF93DF93EC018FEB93E09983EF
:101490008883CE010E94F214CE010E941F22DF91A8
:1014A000CF910895CF93DF93BC01CAE5D5E0CE017B
:1014B0000E94B415CE01DF91CF910895EF92FF9273
:1014C0000F931F93CF93DF93EC016FE873E041E03C
:1014D00050E02FEF3FEF0FEF1FEFEE24FF240E94AD
:1014E00003158FEB93E099838883DF91CF911F9150
:1014F0000F91FF90EF900895CF92DF92EF92FF92BD
:101500000F931F93CF93DF93EC01FB018A016901D5
:101510006FE873E041E050E09F01EE24FF240E9459
:1015200003158FEB93E099838883DD86CC86DF916A
:10153000CF911F910F91FF90EF90DF90CF90089582
:101540008130910559F48AE595E060E070E040E073
:1015500050E020E030E00E947C0A0895009751F4AA
:101560008FEB93E090935B0580935A058AE595E0B5
:101570000E94F214089581E090E00E94A00A08956C
:1015800080E090E00E94A00A0895089508950E94C6
:10159000F81408952DEC33E0FC01318320830E9480
:1015A000F2140895CF93DF93EC018DEC93E09983CF
:1015B0008883CE010E94F214CE010E941F22DF9187
:1015C000CF910895EF92FF920F931F93CF93DF93E4
:1015D000EC019B018A0160ED70E041E050E0EE24F7
:1015E000FF240E9403158DEC93E099838883DF919B
:1015F000CF911F910F91FF90EF9008958130910549
:1016000049F488E695E060E070E040E050E00E9438
:10161000E20A0895009751F48DEC93E090936905E8
:101620008093680588E695E00E94F214089581E0B1
:1016300090E00E94FE0A089580E090E00E94FE0A79
:101640000895CF93DF939C01EB018DB79EB70A9766
:101650000FB6F8949EBF0FBE8DBFADB7BEB7119643
:1016600088819981EDB7FEB79283818383E191E010
:1016700013969C938E931297F90184859585159600
:101680009C938E9314978685978517969C938E933B
:1016900016978089918919969C938E9318970E942A
:1016A000812F888199810C96998388838DB79EB705
:1016B0000A960FB6F8949EBF0FBE8DBFDF91CF91F3
:1016C0000895CF92DF92EF92FF920F931F93DF93D3
:1016D000CF93CDB7DEB72F970FB6F894DEBF0FBE0E
:1016E000CDBF7C016B01FB01008111811A861D8237
:1016F000F80180819181A281B38189839A83AB8330
:10170000BC83CE01019660E070E04AE050E00E94A8
:10171000372EF70175876487F80184819581A6814A
:10172000B7818E839F83A887B987CE01069660E034
:1017300070E04AE050E00E94372EF7017787668715
:10174000F80180859185A285B3858B879C87AD87BD
:10175000BE87CE010B9660E070E04AE050E00E9448
:10176000372EF701718B608BF601808191810C9689
:10177000918380832F960FB6F894DEBF0FBECDBF46
:10178000CF91DF911F910F91FF90EF90DF90CF905D
:1017900008950E94F8149C01245F3F4FC9010895E9
:1017A0002BED33E0FC01318320830E94F214089575
:1017B000CF93DF93EC018BED93E099838883CE0187
:1017C0000E94F214CE010E941F22DF91CF91089552
:1017D000EF92FF920F931F938130910509F584E7F3
:1017E00095E061ED70E041E050E020E030E000E0A5
:1017F00010E0EE24FF240E9403158BED93E09093FC
:1018000075058093740510928105109280051092E1
:1018100083051092820510928505109284050CC0F4
:10182000009751F48BED93E09093750580937405C8
:1018300084E795E00E94F2141F910F91FF90EF90C2
:10184000089581E090E00E94E80B089580E090E028
:101850000E94E80B0895089508950E94F8140895D1
:1018600029EE33E0FC01318320830E94F2140895B5
:10187000CF93DF93EC0189EE93E099838883CE01C7
:101880000E94F214CE010E941F22DF91CF91089591
:10189000EF92FF920F931F93CF93DF93EC019B0185
:1018A0008A0162ED70E041E050E0EE24FF240E94E6
:1018B000031589EE93E099838883DF91CF911F917F
:1018C0000F91FF90EF9008958130910549F486E8DB
:1018D00095E060E070E040E050E00E94480C089520
:1018E000009751F489EE93E09093870580938605E5
:1018F00086E895E00E94F214089581E090E00E944D
:10190000640C089580E090E00E94640C0895CF93E9
:10191000DF93EB0100D000D000D0EDB7FEB73196D9
:1019200028813981ADB7BEB712963C932E9311979B
:1019300020E231E033832283DC011C968D919C915F
:101940001D97958384830E94812F888199810496B5
:10195000998388838DB79EB706960FB6F8949EBF7D
:101960000FBE8DBFDF91CF910895EF92FF920F933D
:101970001F93DF93CF9300D000D00F92CDB7DEB787
:101980007C018B01DB01ED91FC911D8280819181B5
:10199000A281B38189839A83AB83BC83CE010196F4
:1019A00060E070E04AE050E00E94372EF701758752
:1019B0006487D8018D919C911197049611969C9300
:1019C0008E930F900F900F900F900F90CF91DF910B
:1019D0001F910F91FF90EF9008950E94F8149C01C1
:1019E0002C5F3F4FC901089527EF33E0FC0131839D
:1019F00020830E94F2140895CF93DF93EC0187EFC8
:101A000093E099838883CE010E94F214CE010E9454
:101A10001F22DF91CF910895CF92DF92EF92FF9234
:101A20000F931F93CF93DF93EC01FB018A016901B0
:101A300063ED70E041E050E09F01EE24FF240E943E
:101A4000031587EF93E099838883DD86CC86DF9149
:101A5000CF911F910F91FF90EF90DF90CF9008955D
:101A60008130910559F482E995E060E070E040E052
:101A700050E020E030E00E940C0D0895009751F4F2
:101A800087EF93E0909393058093920582E995E028
:101A90000E94F214089581E090E00E94300D0895B4
:101AA00080E090E00E94300D08958130910589F426
:101AB00080EA95E060E070E040E050E00E94260996
:101AC0008CEA95E060E070E040E050E00E94D30DC9
:101AD0000895009741F48CEA95E00E94AF0D80EAEA
:101AE00095E00E94020908950F931F93CF93DF930F
:101AF0009C018B01C0EAD5E0CE01B9010E941F15FF
:101B0000CE01B8010E942315CE01DF91CF911F9124
:101B10000F9108950F931F93CF93DF939C018B0137
:101B2000CCEAD5E0CE01B9010E941F15CE01B80163
:101B30000E942315CE01DF91CF911F910F9108953F
:101B400081E090E00E94550D089580E090E00E94B1
:101B5000550D0895089508950E94F814089525E0FC
:101B600034E0FC01318320830E94F2140895CF9366
:101B7000DF93EC0185E094E099838883CE010E9495
:101B8000F214CE010E941F22DF91CF910895CF93CE
:101B9000DF93BC01C8EBD5E0CE010E94B415CE01A5
:101BA000DF91CF910895EF92FF920F931F93CF9300
:101BB000DF93EC019B018A016CEC70E041E050E0A6
:101BC000EE24FF240E94031585E094E09983888326
:101BD000DF91CF911F910F91FF90EF900895813089
:101BE000910549F488EB95E060E070E040E050E05A
:101BF0000E94D30D0895009751F485E094E09093EE
:101C0000B9058093B80588EB95E00E94F214089519
:101C100081E090E00E94EF0D089580E090E00E9446
:101C2000EF0D08950F931F93CF93DF93FC018B016A
:101C30008DB79EB70E970FB6F8949EBF0FBE8DBF9F
:101C4000ADB7BEB71196EB0188819981CDB7DEB7EC
:101C50009A83898385E291E013969C938E931297E1
:101C60008485958515969C938E9314978685978584
:101C700017969C938E9316978089918919969C93B9
:101C80008E931897828993891B969C938E931A97AB
:101C9000848995891D969C938E931C970E94812F11
:101CA000F801808191814496918380838DB79EB79E
:101CB0000E960FB6F8949EBF0FBE8DBFDF91CF91E9
:101CC0001F910F910895CF92DF92EF92FF920F93A1
:101CD0001F93DF93CF93CDB7DEB769970FB6F89414
:101CE000DEBF0FBECDBF7C016B01FB010081118106
:101CF0001A861D821C8A1F86198EF80180819181A7
:101D0000A281B38189839A83AB83BC83CE01019680
:101D100060E070E04AE050E00E94372EF7017587DE
:101D20006487F80184819581A681B7818E839F8322
:101D3000A887B987CE01069660E070E04AE050E0DF
:101D40000E94372EF70177876687F8018085918595
:101D5000A285B3858B879C87AD87BE87CE010B9606
:101D600060E070E04AE050E00E94372EF701718B8E
:101D7000608BF80184859585A685B785888B998BBE
:101D8000AA8BBB8BCE01409660E070E04AE050E049
:101D90000E94372EF701738B628BF801808991893D
:101DA000A289B3898D8B9E8BAF8BB88FCE01459660
:101DB00060E070E04AE050E00E94372EF701758B3A
:101DC000648BF6018081918144969183808369962A
:101DD0000FB6F894DEBF0FBECDBFCF91DF911F913C
:101DE0000F91FF90EF90DF90CF9008950E94F8142C
:101DF0009C012C5E3F4FC901089523E134E0FC01B2
:101E0000318320830E94F2140895CF93DF93EC0175
:101E100083E194E099838883CE010E94F214CE017D
:101E20000E941F22DF91CF910895EF92FF920F93AE
:101E30001F938130910549F584EC95E063ED70E0E6
:101E400041E050E020E030E000E010E0EE24FF242C
:101E50000E94031583E194E09093C5058093C40527
:101E60001092D1051092D0051092D3051092D20590
:101E70001092D5051092D4051092D7051092D60570
:101E80001092D9051092D8050CC0009751F483E147
:101E900094E09093C5058093C40584EC95E00E947E
:101EA000F2141F910F91FF90EF90089581E090E060
:101EB0000E94150F089580E090E00E94150F08958C
:101EC000CF93DF939C01EB018DB79EB708970FB6B8
:101ED000F8949EBF0FBE8DBFADB7BEB71196888177
:101EE0009981EDB7FEB7928381838AE391E01396DF
:101EF0009C938E931297F9018485958515969C93F2
:101F00008E9314978685978517969C938E93169734
:101F10000E94812F888199810896998388838DB743
:101F20009EB708960FB6F8949EBF0FBE8DBFDF9187
:101F3000CF910895CF92DF92EF92FF920F931F936C
:101F4000DF93CF93CDB7DEB72A970FB6F894DEBFF5
:101F50000FBECDBF6C018B01FB01E080F1801A86C2
:101F60001D82F70180819181A281B38189839A8347
:101F7000AB83BC83CE01019660E070E04AE050E0A4
:101F80000E94372EF60175876487F7018481958159
:101F9000A681B7818E839F83A887B987CE010696D5
:101FA00060E070E04AE050E00E94372EF60177874B
:101FB0006687F801808191810896918380832A96B3
:101FC0000FB6F894DEBF0FBECDBFCF91DF911F914A
:101FD0000F91FF90EF90DF90CF9008950E94F8143A
:101FE0009C01285F3F4FC901089521E234E0FC01C4
:101FF000318320830E94F2140895CF93DF93EC0184
:1020000081E294E099838883CE010E94F214CE018C
:102010000E941F22DF91CF910895CF93DF93BC01DF
:10202000CAEDD5E0CE010E94B415CE01DF91CF916B
:102030000895AF92BF92CF92DF92EF92FF920F93EB
:102040001F93CF93DF93EC01FB01DA015901680183
:1020500069EC70E041E050E09F018D01EE24FF2427
:102060000E94031581E294E099838883BD86AC8643
:10207000DF86CE86DF91CF911F910F91FF90EF9079
:10208000DF90CF90BF90AF9008950F931F93813052
:10209000910569F48AED95E060E070E040E050E081
:1020A00020E030E000E010E00E9419100CC0009722
:1020B00051F481E294E09093DB058093DA058AED98
:1020C00095E00E94F2141F910F910895FC01848500
:1020D00095850895FC0186859785089581E090E0B7
:1020E0000E944510089580E090E00E9445100895F8
:1020F000089508950E94F81408952FE234E0FC0139
:10210000318320830E94F2140895CF93DF93EC0172
:102110008FE294E099838883CE010E94F214CE016D
:102120000E941F22DF91CF910895CF93DF93BC01CE
:10213000CAEED5E0CE010E94B415CE01DF91CF9159
:102140000895EF92FF920F931F93CF93DF93EC01CB
:102150009B018A016FEC70E041E050E0EE24FF2427
:102160000E9403158FE294E099838883DF91CF91D9
:102170001F910F91FF90EF9008958130910549F4E0
:102180008AEE95E060E070E040E050E00E94A1102F
:102190000895009751F48FE294E09093EB058093BB
:1021A000EA058AEE95E00E94F214089581E090E03D
:1021B0000E94BD10089580E090E00E94BD10089537
:1021C000089508950E94F81408952DE334E0FC0169
:1021D000318320830E94F2140895CF93DF93EC01A2
:1021E0008DE394E099838883CE010E94F214CE019E
:1021F0000E941F22DF91CF910895CF93DF93BC01FE
:10220000C6EFD5E0CE010E94B415CE01DF91CF918B
:102210000895EF92FF920F931F93CF93DF93EC01FA
:102220009B018A016DEC70E041E050E0EE24FF2458
:102230000E9403158DE394E099838883DF91CF9109
:102240001F910F91FF90EF9008958130910549F40F
:1022500086EF95E060E070E040E050E00E940911F8
:102260000895009751F48DE394E09093F7058093DF
:10227000F60586EF95E00E94F214089581E090E063
:102280000E942511089580E090E00E942511089594
:10229000089508950E94F81408952BE434E0FC0199
:1022A000318320830E94F2140895CF93DF93EC01D1
:1022B0008BE494E099838883CE010E94F214CE01CE
:1022C0000E941F22DF91CF910895CF93DF93BC012D
:1022D000C2E0D6E0CE010E94B415CE01DF91CF91CD
:1022E0000895EF92FF920F931F93CF93DF93EC012A
:1022F0009B018A016EEC70E041E050E0EE24FF2487
:102300000E9403158BE494E099838883DF91CF9139
:102310001F910F91FF90EF9008958130910549F43E
:1023200082E096E060E070E040E050E00E947111D1
:102330000895009751F48BE494E090930306809302
:10234000020682E096E00E94F214089581E090E097
:102350000E948D11089580E090E00E948D110895F3
:1023600081E00895CF93DF93EC018A819B8140E067
:1023700050E060EA71E40E94EC188A819B8140E0A1
:1023800050E060EA71E40E94F1181C821A861986F6
:102390001C861B86DF91CF910895CF93DF93EC01CC
:1023A0008A819B8140E050E060EA71E40E94EC1871
:1023B0008A819B8140E050E060EA71E40E94F1185C
:1023C0001C821A8619861C861B86DF91CF91089580
:1023D000CF92DF92EF92FF920F931F93CF93DF93F1
:1023E000EC018B018A819B810E94F6189E838D836C
:1023F0008A819B810E94FF1898878F838B859C859B
:10240000800F911F9C878B878A819B810E9408196E
:102410008823D1F58A819B810E944C198823A1F5DC
:102420002D813E818F819885BC01620F731F281B0F
:10243000390B04E110E0209FC001219F900D309FD7
:10244000900D11240E947E2C7B01CA80DB806C5E83
:102450007F4F882777FD8095982F0E944303AB011B
:10246000BC01C6010E94EC18CA80DB800E191F094E
:10247000B801882777FD8095982F0E944303AB0110
:10248000BC01C6010E94F11889859A85009771F4F4
:102490008B859C8521E0873892070CF47BC081E016
:1024A00090E09A8789871C861B8674C08A819B81ED
:1024B0000E945B192A813B81882331F1C90140E0E8
:1024C00050E0BA010E94EC188A819B8140E050E004
:1024D000BA010E94F11881E08C831A8619861C8645
:1024E0001B868A819B810E94D3198C018A819B81E2
:1024F0000E94AF177C018A819B810E94AB17BC01AF
:10250000C7010E94740D42C0C9010E942B192A8183
:102510003B81882381F0C90140E050E060EA71E42A
:102520000E94EC188A819B8140E050E060EA71E4EF
:102530000E94F1182FC0C9010E940819882351F187
:102540008A819B8140E050E0BA010E94EC188A81A8
:102550009B8140E050E0BA010E94F11881E08C8339
:102560001A8619861C861B868A819B810E94D31934
:102570008C018A819B810E94AF177C018A819B819B
:102580000E94AB17BC01C7010E948A0DBC01C801A3
:102590000E94C516DF91CF911F910F91FF90EF9090
:1025A000DF90CF90089529E534E0FC01318320834A
:1025B0000E94CB140895CF93DF93EC0189E594E05A
:1025C00099838883CE010E94CB14CE010E941F22E2
:1025D000DF91CF910895CF93DF93EC010E94D9143E
:1025E00089E594E0998388831E821D8218861F8264
:1025F0001A8619861C861B86DF91CF91089580E08C
:1026000090E0A8ECB2EC80930E0690930F06A09396
:102610001006B0931106089580E090E0A8ECB2ECAB
:102620008093120690931306A0931406B093150698
:10263000089580E090E0A8ECB2EC809316069093A9
:102640001706A0931806B0931906089580E090E04D
:10265000A8ECB2EC80931A0690931B06A0931C067C
:10266000B0931D06089580E0089521E0FC012483C5
:102670000895089529E634E0FC01318320830E9407
:10268000CB140895CF93DF93EC0189E694E099830E
:102690008883CE010E94CB14CE010E941F22DF91BD
:1026A000CF910895CF93DF93EC010E94D91489E66E
:1026B00094E099838883DF91CF910895CF93DF933E
:1026C000FC0176836583C281D381882777FD80955D
:1026D000982F0E944303AB01BC01CE010E94EC186D
:1026E000DF91CF910895CF93DF93FC0170876783CB
:1026F000C281D381882777FD8095982F0E9443035C
:10270000AB01BC01CE010E94F118DF91CF91089579
:102710000F931F93CF93DF93EC018B01CB010E94AA
:1027200066109C01CE01B9010E945E13C8010E948F
:102730006A10BC01CE010E94731381E08C83DF918B
:10274000CF911F910F91089580E090E0A8ECB2EC3A
:1027500080931E0690931F06A0932006B093210637
:10276000089581E00895CF93DF93EC018A819B81E6
:1027700040E050E0BA010E94EC188A819B8140E061
:1027800050E0BA010E94F1181A8619861C861B8631
:102790001C82DF91CF910895EF92FF920F931F93C8
:1027A000CF93DF93EC0189859A85680F791F7A872B
:1027B00069878B859C85009729F4603571050CF439
:1027C00071C008C08130910571F583E064387807E5
:1027D0000CF468C00A811B816D857E85882777FD92
:1027E0008095982F0E944303AB01BC01C8010E9451
:1027F000EC180A811B816D857E85709561957F4FF0
:10280000882777FD8095982F0E944303AB01BC0178
:10281000C8010E94F1181A8619868B859C8501963D
:102820009C878B873FC082309105E1F58A819B812F
:102830006E3671057CF440E050E068EC71EC0E946B
:10284000EC188A819B8140E050E068EC71EC0E94BA
:10285000F11828C021E02C831C861B861A86198655
:1028600040E050E0BA010E94EC188A819B8140E070
:1028700050E0BA010E94F1188A819B810E94D3190D
:102880008C018A819B810E94AF177C018A819B8188
:102890000E94AB17BC01C7010E94740DBC01C801A6
:1028A0000E94C516DF91CF911F910F91FF90EF907D
:1028B0000895CF93DF93EC01CB010E941B158E3C52
:1028C000910549F08F3C910569F08D3C910591F49B
:1028D00084E190E002C08CEE9FEF9E878D8784E8B4
:1028E00093E006C084E190E09E878D8788E097E0C2
:1028F000988B8F878A819B8140E050E068EC71E47F
:102900000E94EC188A819B8140E050E068EC71E401
:102910000E94F1181A8619861C861B861C82DF917C
:10292000CF91089529E734E0FC01318320830E9490
:10293000CB140895CF93DF93EC0189E794E099835A
:102940008883CE010E94CB14CE010E941F22DF910A
:10295000CF910895CF93DF93EC010E94D91489E7BA
:1029600094E0998388831E821D8218861F821A86AE
:1029700019861C861B86DF91CF91089580E090E038
:10298000A8ECB2EC8093220690932306A093240631
:10299000B0932506089529E834E0FC0131832083B3
:1029A000089529E834E0FC01318320830E941F222E
:1029B0000895FC0189E894E09183808373836283A6
:1029C00014820895FC018481089580E090E0A8ECD1
:1029D000B2EC8093260690932706A0932806B09326
:1029E0002906089529E934E0FC0131832083089504
:1029F0008AE190E0089529E934E0FC0131832083E5
:102A00000E941F220895EF92FF920F931F93FC01E3
:102A100089E994E09183808373836283558344833F
:102A2000F782E68231872087138702871F910F91F3
:102A3000FF90EF900895FC01828193810895FC013D
:102A4000718760870895FC01738762870895CF922C
:102A5000DF92EF92FF920F931F93DF93CF93CDB747
:102A6000DEB765970FB6F894DEBF0FBECDBF7C0111
:102A70006B01FB01008111811A821E821B861D8A57
:102A8000188AF80182859385A485B5858F839887F8
:102A9000A987BA87CE01079660E070E04AE050E06F
:102AA0000E94372EF70173836283DE011396F801CB
:102AB0003E9683E001900D928150E1F7CE0103969E
:102AC00060E070E04AE050E00E94372EF701758325
:102AD0006483F80181898983CE01019660E070E00A
:102AE0004AE050E00E94372EF70177836683F801B1
:102AF00082899389A489B5898C879D87AE87BF8792
:102B0000CE010C9660E070E04AE050E00E94372E63
:102B1000F70171876087F80186899789A08DB18D4B
:102B2000898B9A8BAB8BBC8BCE01419660E070E0B9
:102B30004AE050E00E94372EF70173876287F60162
:102B4000808191814A969183808365960FB6F8942F
:102B5000DEBF0FBECDBFCF91DF911F910F91FF90D0
:102B6000EF90DF90CF900895EF92FF920F931F9315
:102B7000DF93CF9300D0CDB7DEB78C017A83698322
:102B80007E010894E11CF11CB7010E942715D801B1
:102B9000ED91FC910680F781E02DC801B701099500
:102BA0000F900F90CF91DF911F910F91FF90EF90B9
:102BB0000895CF92DF92EF92FF920F931F93CF93DE
:102BC000DF93EC018B01DB01ED90FC90C0903B03A7
:102BD000D0903C03E881F9810480F581E02D0995CE
:102BE000EDB7FEB772970FB6F894FEBF0FBEEDBFFC
:102BF0003196ADB7BEB71296FC92EE92119723E4D0
:102C000031E033832283D582C482978386838A818D
:102C10009B81918780878C819D81938782878E811C
:102C20009F819587848788859985978786878A85F8
:102C30009B85918B808B0E94812FF80180819181EF
:102C40004A96918380832DB73EB72E5E3F4F0FB6D5
:102C5000F8943EBF0FBE2DBFDF91CF911F910F9112
:102C6000FF90EF90DF90CF900895EF92FF920F9337
:102C70001F93DF93CF9300D0CDB7DEB78C017A835B
:102C800069837E010894E11CF11CB7010E94D915EB
:102C9000D801ED91FC910084F185E02DC801B701C8
:102CA00009950F900F90CF91DF911F910F91FF9099
:102CB000EF90089527EA34E0FC01318320830895E2
:102CC00027EA34E0FC01318320830E941F2208950B
:102CD000CF93DF93FC0187EA94E091838083738331
:102CE000628355834483DF01A857BF4F1D921C9216
:102CF000DF01A657BF4F1D921C92DF01AA57BF4F9D
:102D00008FEF9FEF8D939C93CF0184579F4FDC01F2
:102D100086E4ED0119928A95E9F7DF011696EA5BE0
:102D2000FF4F80E290E02FEF3FEF1D921D92219325
:102D300031930197D1F7DF91CF910895DC0112967D
:102D40008D919C911397DC01ED91FC910190F081A4
:102D5000E02D09950895FC01EA57FF4F408151810C
:102D600057FD0FC0FC01EA5BFF4F20E030E081918E
:102D700091918617970739F02F5F3F4F42175307FE
:102D8000B4F72FEF3FEFC9010895CF92DF92EF9292
:102D9000FF920F931F93CF93DF938C01EB01CB0135
:102DA0000E941B157C01E881F9810480F581E02DEA
:102DB000CE0109956C01C801B7010E94AB16FC0158
:102DC0003396EE0FFF1FE00FF11F80819181009776
:102DD000B1F400D000D085E691E0ADB7BEB7129651
:102DE0009C938E9311971496FC92EE9213970E94E7
:102DF0006C2F0F900F900F900F9080E015C08CE813
:102E0000E82EF12CE00EF11ECE01B7010E9435161E
:102E1000F80184819581DC01ED91FC910480F581BC
:102E2000E02DB701A6010995DF91CF911F910F9178
:102E3000FF90EF90DF90CF900895EF92FF920F9365
:102E40001F93CF93DF938C01EB017A0177FF05C0CD
:102E500000D000D089E891E00AC00E94AB16FFEFD5
:102E60008F3F9F0791F000D000D082EA91E0EDB74C
:102E7000FEB792838183D483C3830E946C2F0F900B
:102E80000F900F900F9080E01BC0D801AA57BF4F42
:102E9000ED91FC911197CF0101968D939C93DF01E9
:102EA0001496AA0FBB1FA00FB11F1196FC92EE92B1
:102EB000B496EE0FFF1FE00FF11FD183C08381E0B6
:102EC000DF91CF911F910F91FF90EF9008952FEA1E
:102ED00034E0FC013183208308952FEA34E0FC01C3
:102EE000318320830E941F2208952FEA34E0FC01E1
:102EF0003183208308952BEB34E0FC013183208360
:102F000008952BEB34E0FC01318320830E941F22C3
:102F100008952BEB34E0FC0131832083089525ECE8
:102F200034E0FC01318320838E5B9F4F0E943A0A7C
:102F30000895CF93DF93EC0185EC94E09983888327
:102F4000CE018E5B9F4F0E943A0ACE010E941F2243
:102F5000DF91CF910895FC0186A597A50895FC0106
:102F600080A991A9089587E160E773E025E030E04A
:102F700040E050E00E94AE236AE070E080E090E024
:102F80000E9423290895CF93DF93EC017B836A830A
:102F90005FA74EA739AB28AB8FEF9FEF9DA78CA7FC
:102FA0001DAA1CAA80E090E0DC018EAB9FABA8AF0D
:102FB000B9AF8AAF9BAFACAFBDAFFE0134968AE02C
:102FC00090E02FEF3FEF11921192338B228B0197FC
:102FD000D1F70E944A298AED96E040E855E260E088
:102FE00070E00E94102282E496E060E00E949E2140
:102FF00082E396E061E00E949E2183E697E040E84C
:1030000055E260E070E00E94E322CE010E94B31717
:103010006CE370E080E090E00E942329DF91CF9183
:103020000895EF92FF920F931F93CF93DF93EC01DC
:103030008B017A0185EC94E099838883CE018E5BC5
:103040009F4F0E945E0ACE01B801A7012FEF3FEF0C
:103050000E94C317DF91CF911F910F91FF90EF90C6
:103060000895FC0144A555A557FD0DC0789620E0B4
:1030700030E0819191918617970739F02F5F3F4F8C
:1030800042175307B4F72FEF3FEFC9010895EF92AE
:10309000FF920F931F93CF93DF93EC018B017A0183
:1030A00077FF05C000D000D08DEC91E00AC00E94EF
:1030B0003118FFEF8F3F9F0791F000D000D086EED0
:1030C00091E0EDB7FEB792838183148303830E945E
:1030D0006C2F0F900F900F900F9080E017C0ECA511
:1030E000FDA5CF0101969DA78CA7DF011396AA0F1E
:1030F000BB1FAC0FBD1F1196FC92EE923D96EE0FDA
:10310000FF1FEC0FFD1F1183008381E0DF91CF9142
:103110001F910F91FF90EF900895EF92FF920F9300
:103120001F93CF93DF93EC017B0183E00E94E229A0
:103130009C01B901882777FD8095982F0E94430351
:103140006EAB7FAB88AF99AF84E00E94E229DC01CF
:10315000BD01882777FD8095982F0E9443036AAFB1
:103160007BAF8CAF9DAF80E10E94E2298E01025CB3
:103170001F4FFC01BF01882777FD8095982F0E9483
:103180004303D8016D937D938D939C9313978CA9E2
:103190009DA901969DAB8CAB8AA99BA9009789F04C
:1031A0000E94E214882319F01BAA1AAA0AC08AA94D
:1031B0009BA9DC01ED91FC910084F185E02DB70124
:1031C00009958A819B810E949E16DF91CF911F9164
:1031D0000F91FF90EF90089582E496E00E94E12025
:1031E000089582E396E00E94E1200895FC0166A91B
:1031F00077A980AD91AD0E94A303CB010895FC0196
:1032000062AD73AD84AD95AD0E94A303CB0108956B
:103210001F93CF93DF93EC016EA97FA988AD99AD81
:1032200020E030E04CE554E40E94E30218166CF410
:1032300011E06AAD7BAD8CAD9DAD20E030E04CE59A
:1032400054E40E94E30218160CF010E0812FDF9185
:10325000CF911F910895CF93DF93EC016EA97FA9C1
:1032600088AD99AD20E030E046E153E40E941303BD
:1032700087FF0EC06AAD7BAD8CAD9DAD20E030E028
:1032800046E153E40E941303881F8827881F01C06A
:1032900080E0DF91CF910895FC0166A977A980AD08
:1032A00091AD20E030E046E153E40E941303881F13
:1032B0008827881F0895AF92BF92CF92DF92EF9236
:1032C000FF920F931F93CF93DF93EC01AEA8BFA89B
:1032D000C8ACD9ACC601B50120E030E046E154E409
:1032E0000E94130387FF2CC0C601B50120E030E027
:1032F0004FEA53E40E94E302181614F5EAACFBAC63
:103300000CAD1DADC801B70120E030E046E154E44A
:103310000E94130387FF0AC0C801B70120E030E014
:103320004FEA53E40E94E302181674F1C801B70192
:1033300020E030E04CE554E40E94E302181624F14A
:10334000C601B50120E030E04CE554E40E94E30200
:103350001816E4F4AAACBBACCCACDDACC601B5012C
:1033600020E030E046E154E40E94130387FF0EC0E2
:1033700011E0C601B50120E030E04FEA53E40E94BD
:10338000E302181624F002C011E001C010E0812F02
:10339000DF91CF911F910F91FF90EF90DF90CF9031
:1033A000BF90AF900895FC0182819381089580E0E1
:1033B00090E0A8ECB2EC80932A0690932B06A093A1
:1033C0002C06B0932D0608950F931F93CF93DF9390
:1033D000FC01158214828C01005B1F4F8481958152
:1033E00087349105BCF4D8012D913C911197821737
:1033F000930794F4EB01C80FD91F8E0F9F1FDC01B8
:1034000016968C9116978883848195810196958371
:103410008483E4CF15821482DF01A25BBF4F1D922B
:103420001C9284819581DA0111969C938E93E05BC6
:10343000FF4F11821082DF91CF911F910F9108955C
:10344000CF92DF92EF92FF920F931F93CF93DF9370
:103450008A019A01215030402634310538F5DC01CB
:1034600015965C934E931497E62EF72EC0E0D0E0AD
:103470002CE4C22ED12CC80ED91EF6018081918178
:10348000D7016D917D01DC01ED91FC910190F081FE
:10349000E02D09952196C017D1077CF364E170E017
:1034A00080E090E00E94232981E001C080E0DF916C
:1034B000CF911F910F91FF90EF90DF90CF900895E3
:1034C000AF92BF92CF92DF92EF92FF920F931F9332
:1034D000DF93CF9300D000D00F92CDB7DEB78C0131
:1034E000FC01E05BFF4F80819181181619060CF4F6
:1034F00047C04CE4A42EB12CA00EB11E3EE4E32E36
:10350000F12CE00EF11ED5018D919C91DC01ED9125
:10351000FC910680F781E02D0995009709F443C0DE
:10352000F701C080D180F6E4CF16D104E4F5D501CF
:103530008D919C91DC01ED91FC910084F185E02D51
:103540000995F801EC0DFD1D8683F70180819181BD
:10355000019691838083D7CF3D912191321729F431
:10356000019686309105C1F72FC0F801E25BFF4F4D
:1035700011821082F801E05BFF4F1182108202C0BD
:1035800081E001C080E00F900F900F900F900F909E
:10359000CF91DF911F910F91FF90EF90DF90CF902F
:1035A000BF90AF900895F801E25BFF4F8081918159
:1035B0008A3191053CF3D8011696E0913B03F091D6
:1035C0003C0380E090E0C8CF1D82F801848595859A
:1035D000A685B78589839A83AB83BC83CE01019688
:1035E00060E070E04AE050E00E94372E9B01F80155
:1035F000E05BFF4F71836083D801A25BBF4F8D9169
:103600009C911197821793070CF4B7CF81E01216A3
:1036100013060CF4B8CFB6CFCF93DF93EC018DEC4B
:1036200094E0998388830E969B838A83CE010296C9
:103630000E946717CE010E947B17DF91CF910895FA
:10364000CF93DF93EC010E940C1BCE010E941F223E
:10365000DF91CF910895CF93DF93EC010E948917FA
:10366000CE0102960E9475178DEC94E099838883B1
:103670000E969B838A831D821C82FE01E25BFF4FB4
:1036800011821082FE01E05BFF4F11821082C45B49
:10369000DF4F83E697E099838883DF91CF91089588
:1036A00080E090E0A8ECB2EC80932E0690932F0679
:1036B000A0933006B0933106089502970E94201B14
:1036C000089502970E940C1B089502970E94601AA9
:1036D000089502970E94E41908958093E900EBEEA3
:1036E000F0E0808181608083EDEEF0E010826093F5
:1036F000EC0040838091EE00881F8827881F089582
:103700008091B30787FF13C004C08091B20788235C
:10371000B9F08091E80082FFF8CF8091E8008B77C4
:103720008093E80008958091B207882349F0809142
:10373000E80080FFF8CF8091E8008E778093E80062
:1037400008958091E4009091E50044E62091EC001A
:1037500020FF05C02091E80020FF05C01AC020917D
:10376000E80022FD16C02091B2072223A1F02530E7
:10377000A1F02091EB0025FD12C02091E4003091D2
:10378000E5002817390711F3442359F04150C901C6
:10379000DDCF80E0089582E0089583E0089581E020
:1037A000089584E008950E942B1C0E94331C809190
:1037B000D800982F9F779093D80080688093D80086
:1037C0008AE482BF80E189BD89B5826089BD09B480
:1037D00000FEFDCF8091D8008F7D8093D80010929D
:1037E000B2071092B0071092AF071092AE07809107
:1037F000E0008B7F8093E0008091D800816080930F
:10380000D80080E060E042E00E946D1B8091E10002
:103810008E7F8093E1008091E20081608093E200DE
:103820008091E20088608093E2008091E0008E7FCA
:103830008093E0008091D80080618093D800089543
:10384000E7EDF0E080818160808381E08093B107C3
:103850000E94D31B0895E8EDF0E080818E7F808385
:103860001092E20008951092DA001092E10008959B
:103870001F920F920FB60F9211242F933F934F93E5
:103880005F936F937F938F939F93AF93BF93EF93C8
:10389000FF938091DA0080FF17C08091D80080FFED
:1038A00013C08091DA008E7F8093DA008091D90076
:1038B00080FF06C081E08093B2070E94A52704C064
:1038C0001092B2070E94A6278091E10080FF1EC0DF
:1038D0008091E20080FF1AC08091E1008E7F80938A
:1038E000E1008091E2008E7F8093E2008091E2000F
:1038F00080618093E2008091D80080628093D8003C
:1039000019BC85E08093B2070E94231F8091E100DB
:1039100084FF2FC08091E20084FF2BC080E189BD2D
:1039200089B5826089BD09B400FEFDCF8091D800C1
:103930008F7D8093D8008091E1008F7E8093E1009D
:103940008091E2008F7E8093E2008091E2008160AE
:103950008093E2008091B007882321F48091E300F6
:1039600087FF02C084E001C081E08093B2070E941B
:10397000231F8091E10083FF24C08091E20083FF38
:1039800020C08091E100877F8093E10082E08093F6
:10399000B2071092B0078091E1008E7F8093E10022
:1039A0008091E2008E7F8093E2008091E20080614E
:1039B0008093E20080E060E042E00E946D1B0E9484
:1039C000231F8091E10082FF0BC08091E20082FF03
:1039D00007C08091E1008B7F8093E1000E94231F4C
:1039E000FF91EF91BF91AF919F918F917F916F91D7
:1039F0005F914F913F912F910F900FBE0F901F90AD
:103A000018951F93DF93CF9300D0CDB7DEB7E3EBCC
:103A1000F7E08091F100819387E0EB3BF807C9F76D
:103A20008091B3072091B407253009F484C0263073
:103A300040F42130A1F1213070F0233009F0F3C0BF
:103A40002EC0283009F4BDC0293009F4CDC026307D
:103A500009F0E9C094C0803821F0823809F0E3C051
:103A600008C08091AE079091AF07992371F08260F2
:103A70000CC08091B70787708093E9009091EB00AC
:103A800081E095FF80E01092E9009091E800977F37
:103A90009093E8008093F1001092F1009DC088237C
:103AA00019F0823009F0BFC090E08F7190700097DC
:103AB00029F08230910509F0B8C00BC08091B5079C
:103AC000813009F0B2C0233009F080E08093AF0765
:103AD0002CC08091B507882341F52091B707277046
:103AE00009F4A3C02093E9008091EB0080FF1DC082
:103AF0008091B407833021F48091EB00806213C081
:103B00008091EB0080618093EB0081E090E002C047
:103B1000880F991F2A95E2F78093EA001092EA0035
:103B20008091EB0088608093EB001092E900809117
:103B3000E800877F54C0882309F075C01091B5074D
:103B40001F778091E800877F8093E8000E94801BA8
:103B50008091E80080FFFCCF112311F083E001C0C9
:103B600082E08093B2078091E3008078812B80937C
:103B7000E3008091E30080688093E30056C08058A2
:103B8000823008F050C08091B5079091B6076091DF
:103B9000B707AE014F5F5F4F0E942422BC01009720
:103BA00009F443C08091E800877F8093E800898111
:103BB0009A810E94851E8091E8008B778093E800AF
:103BC00034C0803881F58091E800877F8093E800D9
:103BD0008091B0078093F1008091E8008E77809308
:103BE000E8000E94801B21C08823E9F49091B5076A
:103BF0009230D8F48091E800877F8093E80090931A
:103C0000B0070E94801B8091B007882321F4809127
:103C1000E30087FF02C084E001C081E08093B20727
:103C20000E94A72702C00E94AC278091E80083FF72
:103C30000AC08091EB0080628093EB008091E800E5
:103C4000877F8093E8000F900F90CF91DF911F91B5
:103C50000895482F592FFA018091B9079091BA071A
:103C60008617970718F4BC0140E039C0611571054B
:103C7000D9F78091E8008E778093E800F5CF8091A6
:103C8000E80083FD3CC08091E80082FD32C0809155
:103C9000B2078823B1F18091E80080FF20C09091A5
:103CA000F3008091F200392F20E090E0822B932BDB
:103CB00006C041914093F10061507040019661153A
:103CC000710519F088309105A0F341E08830910525
:103CD00009F040E08091E8008E778093E80061155C
:103CE000710569F6442359F604C08091B207882310
:103CF00051F08091E80082FFF8CF80E0089581E0E4
:103D0000089582E0089582E00895482F592F809108
:103D1000B9079091BA078617970718F4BC01E0E03D
:103D20003CC061157105D9F78091E8008E778093CA
:103D3000E800F5CF8091E80083FD3FC08091E80066
:103D400082FD35C08091B2078823C9F18091E800D7
:103D500080FF23C09091F3008091F200392F20E082
:103D600090E0822B932B09C0FA014F5F5F4FE491E3
:103D7000E093F1006150704001966115710519F0F2
:103D80008830910588F3E1E08830910509F0E0E0A2
:103D90008091E8008E778093E8006115710551F6F7
:103DA000EE2341F604C08091B207882351F0809140
:103DB000E80082FFF8CF80E0089581E0089582E076
:103DC000089582E008956115710549F523C0409179
:103DD000E80043FD32C04091B207442381F1409195
:103DE000E80042FFF4CFE82FF92F07C08091F100DF
:103DF0008193CF016150704069F0CF015091F30081
:103E00004091F200352F20E050E0422B532B41151A
:103E1000510561F74091E8004B774093E800611548
:103E20007105A9F604C08091B207882351F08091F2
:103E3000E80080FFF8CF80E0089581E0089582E0F7
:103E4000089582E0089508951F938091B207882312
:103E500069F01091E90017701092E9008091E80074
:103E600083FF02C00E94011D1093E9001F91089575
:103E70000895CF93DF93EC018091E80083FF6AC03F
:103E8000888190E02091B7073091B807281739074B
:103E900009F060C08091B407813261F0823220F471
:103EA000803209F057C01CC0823291F1833209F090
:103EB00051C040C08091B307813A09F04BC0809156
:103EC000E800877F8093E800CE010F9667E070E0FE
:103ED0000E94291E8091E8008B778093E8003AC009
:103EE0008091B3078132B1F58091E800877F80939C
:103EF000E800CE010F9667E070E00E94E31E80911B
:103F0000E8008E778093E800CE010E94381F22C01F
:103F10008091B3078132F1F48091E800877F80932C
:103F2000E8000E94801B8091B5078D87CE010E941A
:103F3000B12710C08091B307813261F48091E8000D
:103F4000877F8093E8000E94801BCE016091B507B7
:103F50000E94381FDF91CF9108951F93CF93DF9375
:103F6000EC010D96FC0189E0DF011D928A95E9F7CD
:103F700011E08981181729F4EA81FB819C8181E095
:103F800007C08D81181731F4EE81FF81988580E09C
:103F900062E008C08985181711F5EA85FB859C85C4
:103FA00081E063E0992311F044E001C040E06295B4
:103FB000660F660F607C682B28E030E080E003C06D
:103FC0008F5F220F331F2E173F07D0F34260829579
:103FD000807F482B812F0E946D1B882329F01F5F53
:103FE000173039F681E001C080E0DF91CF911F9159
:103FF0000895DF93CF930F92CDB7DEB7FC01809188
:10400000B2078430F9F42785308941895289211516
:10401000310541055105B1F081818093E90080911E
:10402000E80085FD0BC08091E8008E778093E80062
:1040300069830E94A11B6981882329F46093F100A0
:1040400080E001C082E00F90CF91DF910895FC01E4
:104050008091B207843051F5278530894189528992
:10406000211531054105510509F181818093E90050
:104070009091F3008091F200392F20E090E0822BA4
:10408000932B0097A9F09091E8008091E8008E773B
:104090008093E80095FD0EC00E94A11B882359F46F
:1040A0009091E8009E779093E800089582E008954B
:1040B00080E0089580E008952091B207243061F4F3
:1040C000FC01278530894189528921153105410537
:1040D000510511F00E9427200895FC018091B2073C
:1040E000843091F527853089418952892115310520
:1040F0004105510549F185818093E9008091E800EF
:1041000082FF22C09091F3008091F200392F20E0CD
:1041100090E0822B932B009721F02091F10030E06A
:1041200002C02FEF3FEF9091F3008091F200592FE2
:1041300040E090E0842B952B009741F48091E800BB
:104140008B778093E80002C02FEF3FEFC9010895FD
:10415000EF92FF920F931F93FC01162FA72FF42EBF
:10416000E22E0083118260E070E0CB0162837383F2
:104170008483958366837783808791871287A3875B
:104180004487558726873787812F61E00E94172B48
:104190008F2D61E00E94172B8E2D61E00E94172B5E
:1041A000812F60E00E943B2B8F2D60E00E943B2B13
:1041B0008E2D60E00E943B2B1F910F91FF90EF909E
:1041C0000895AF92BF92CF92DF92EF92FF920F933A
:1041D0001F93CF93DF93EC01D42EC52EB62EA72EBE
:1041E000E0905206F0905306009154061091550647
:1041F000A6019501652F742F832F922FA801970197
:104200000E94130387FD1FC0A6019501652F742F1F
:10421000832F922F20E030E048EC52E40E94E3022A
:1042200018165CF40F2EF0E0EF2EF0E0FF2EF8EC05
:104230000F2FF2E41F2FF02D06C09601C501E32ECB
:10424000F22E092F182F8A819B81AC81BD818E832C
:104250009F83A887B987EA82FB820C831D838881AC
:10426000882321F417FB109517F91095C801B701A1
:1042700020E030E048EC52E40E94350220E030E0DB
:104280004FE753E40E943B01162FE72E082FF92E2B
:10429000A62EB72EC82ED92E2DEC3CEC4CEC5DE3AF
:1042A0000E94E30218166CF48C8561E00E943B2B9F
:1042B0008E8560E00E943B2B612F7E2D802F9F2DED
:1042C00017C0612F7E2D802F9F2D2DEC3CEC4CECE8
:1042D0005DEB0E94130387FF14C08C8560E00E9491
:1042E0003B2B8E8561E00E943B2BC601B5019058A7
:1042F0000E94A3039B01AC018A85B9010E941B2A7D
:1043000011C08A8560E070E00E941B2A8A8560E007
:104310000E943B2B8C8560E00E943B2B8E8560E0E9
:104320000E943B2B1982DF91CF911F910F91FF903B
:10433000EF90DF90CF90BF90AF900895FC01608325
:104340002181222331F442815381648175810E944D
:10435000E12008950F9380E090E0A8ECB2EC809308
:10436000520690935306A0935406B093550682E3E9
:1043700096E066E170E044E150E025E130E001E0E4
:104380000E94A82082E496E063E070E044E050E000
:1043900028E030E00E94A8200F910895CB010E94F0
:1043A00053270895CB010E9453270895DF93CF939D
:1043B00000D0CDB7DEB71A8219826983CE0101968B
:1043C0000E9453270F900F90CF91DF9108951F9374
:1043D000CF93DF93182F9B01EB01C058DF4FE8818B
:1043E000F981CF01019660E870E00E947E2CAC015B
:1043F000D901AE57BF4F8D919C911197481759071E
:1044000029F0E20FF31F108359834883DF91CF9186
:104410001F910895862F66E576E00E94E7210895B2
:10442000089587EE94E09093DB068093DA0686E5A4
:1044300096E09093DE068093DD060895FFCF009707
:1044400011F00E949E2D0895923049F0933061F052
:104450009130A1F020E030E0E0E0F0E013C02EE386
:1044600030E0EEEBF0E00EC0882319F4ECEFF0E062
:1044700002C0E0E0F1E0249130E004C022E130E04D
:10448000ECEAF0E0DA011196FC93EE93C90108958D
:10449000FC0182819381FC01E058FF4F2081318132
:1044A0008E579F4FFC0180819181281B390B2F77FC
:1044B0003070C9010895FC0182819381FC01EE579F
:1044C000FF4F20813181FC01E058FF4F4081518135
:1044D0004217530731F0820F931FFC01208130E017
:1044E00002C02FEF3FEFC9010895DC0112962D9114
:1044F0003C911397F901EE57FF4F80819181D901CB
:10450000A058BF4F4D915C9111974817590759F02A
:10451000280F391FD9012C9101968F7790709183C4
:10452000808330E002C02FEF3FEFC9010895DC0126
:1045300012968D919C911397FC01E058FF4F8E5776
:104540009F4FDC018D919C911197918380830895F9
:10455000FC01A085B18521898C9190E0022E02C0DA
:10456000959587950A94E2F780FFF6CF0484F58548
:10457000E02D608308951F920F920FB60F921124C1
:104580002F933F934F935F936F937F938F939F935B
:10459000AF93BF93EF93FF938091CE006FED76E0E2
:1045A0000E94E721FF91EF91BF91AF919F918F9171
:1045B0007F916F915F914F913F912F910F900FBE1F
:1045C0000F901F901895CF93DF93EC019A01AB01E8
:1045D000E885F985203081EE380780E0480780E0E3
:1045E000580709F445C081E090E00A8802C0880FAE
:1045F000991F0A94E2F7808360E079E08DE390E010
:104600000E94912C21503040404050405695479593
:1046100037952795EC81FD813083EE81FF812083E2
:10462000EA85FB85408181E090E09C010E8402C018
:10463000220F331F0A94E2F7422B4083EA85FB8561
:1046400040819C010F8402C0220F331F0A94E2F7BD
:10465000422B4083EA85FB852081088802C0880FB1
:10466000991F0A94E2F7282B2083DF91CF910895B8
:10467000108220E130E0CECF81EF94E09093640788
:10468000809363078FED96E09093660780936507AC
:104690008DEC90E090936807809367078CEC90E036
:1046A00090936A078093690788EC90E090936C0779
:1046B00080936B0789EC90E090936E0780936D0771
:1046C0008EEC90E09093700780936F0784E0809366
:1046D000710783E08093720787E08093730785E01A
:1046E0008093740781E08093750708950F931F935B
:1046F000CF93DF93EC01062F172F07C0E881F981D4
:104700000190F081E02DCE010995F80161918F01B2
:104710006623A1F7DF91CF911F910F910895EF923A
:10472000FF920F931F93CF93DF937C01EB018A01DC
:104730000BC06991D701ED91FC910190F081E02DC2
:10474000C7010995015010400115110591F7DF913E
:10475000CF911F910F91FF90EF9008952F923F926C
:104760004F925F926F927F928F929F92AF92BF9281
:10477000DF92EF92FF920F931F93DF93CF9300D0BE
:1047800000D0CDB7DEB71B0129833A834B835C830E
:1047900090913D03981721F09F3F09F071C204C02A
:1047A000E8E2F1E0D490D4C080933D03E8E2F1E088
:1047B000D4909D2D9F3F09F463C2923009F456C0F6
:1047C000933034F4DD2061F0913009F0C1C028C08D
:1047D000AD2DA33009F470C0A43009F0B9C092C067
:1047E00014BC15BC94B5926094BD95B5916095BD0F
:1047F000282F30E0F901ED5AFE4FE491F0E0EE0F82
:10480000FF1FE95CFE4F4591549140937A07509306
:104810007B0723593E4FF901249120937C079AC0CE
:104820001092800010928100909181009860909386
:10483000810090918100916090938100282F30E059
:10484000F901ED5AFE4FE491F0E0EE0FFF1FE95C35
:10485000FE4F45915491409381075093820723590D
:104860003E4FF90124912093830774C01092B00049
:104870001092B1009091B00092609093B00090912E
:10488000B10091609093B100282F30E0F901ED5A0A
:10489000FE4FE491F0E0EE0FFF1FE95CFE4F459103
:1048A0005491409388075093890723593E4FF9014B
:1048B000249120938A074EC010929000109291008C
:1048C00090919100986090939100909191009160E7
:1048D00090939100282F30E0F901ED5AFE4FE491BA
:1048E000F0E0EE0FFF1FE95CFE4F459154914093BD
:1048F0008F075093900723593E4FF901249120933D
:10490000910728C01092C0001092C1009091C10080
:1049100098609093C1009091C10091609093C10004
:10492000282F30E0F901ED5AFE4FE491F0E0EE0F50
:10493000FF1FE95CFE4F45915491409396075093B9
:10494000970723593E4FF90124912093980702C0FD
:10495000D7FC96C161E00E94172BDD2021F0FD2DD0
:10496000F23009F0C1C04101AA24BB2460E072E129
:104970008AE790E0A50194010E94912C29013A0157
:1049800079018A010894E108F108010911098FEF02
:10499000E816F1040105110509F008F498C060E477
:1049A00072E48FE090E0A50194010E94912C7901BE
:1049B0008A010894E108F108010911099D2D92303E
:1049C000C9F4AFEFEA16F1040105110509F008F486
:1049D00085C060E970ED83E090E0A50194010E943C
:1049E000912C79018A010894E108F1080109110963
:1049F00083E001C082E0BFEFEB16F1040105110571
:104A000009F008F465C068E478EE81E090E0A50163
:104A100094010E94912C79018A010894E108F1081F
:104A200001091109DD20E1F0ED2DE230D9F4FFEFAD
:104A3000EF16F1040105110509F008F451C064E214
:104A400074EF80E090E0A50194010E94912C79011F
:104A50008A010894E108F1080109110985E003C001
:104A600083E001C084E09FEFE916F1040105110520
:104A700079F170F162E17AE780E090E0A5019401BC
:104A80000E94912C79018A010894E108F10801093A
:104A90001109DD2011F484E001C086E0AFEFEA16D1
:104AA000F10401051105A1F098F0830172019AE06B
:104AB00016950795F794E7949A95D1F70894E1082D
:104AC000F10801091109DD2031F087E00AC081E019
:104AD000DD2011F006C085E085BD50C082E001C038
:104AE00084E08093B1004AC04101AA24BB2460E065
:104AF00072E18AE790E0A50194010E94912C79016E
:104B00008A010894E108F10801091109B0E0EB16E7
:104B1000B0E0FB06B1E00B07B0E01B0788F068E4EB
:104B200078EE81E090E0A50194010E94912C79013A
:104B30008A010894E108F1080109110993E001C014
:104B400091E0ED2DE13039F480918100887F892B4F
:104B50008093810013C0FD2DF33039F480919100D2
:104B6000887F892B8093910009C08D2D843031F48A
:104B70008091C100887F892B8093C10089819A81AF
:104B8000AB81BC810097A105B10591F0B101660F21
:104B9000771F80E090E029813A814B815C810E94FF
:104BA0005F2C28EE33E040E050E00E94912C04C0DE
:104BB0002FEF3FEF4FEF5FEF9D2D923081F193305C
:104BC00034F4DD2059F0913009F05AC016C0AD2DF3
:104BD000A330A9F1A43009F053C043C0E7BC20932F
:104BE0007607309377074093780750937907809141
:104BF0006E00826080936E0043C0F0928900E09264
:104C0000880020937D0730937E0740937F07509361
:104C1000800780916F00826080936F0031C0E092C6
:104C2000B300209384073093850740938607509301
:104C300087078091700082608093700021C0F0929D
:104C40009900E092980020938B0730938C07409353
:104C50008D0750938E078091710082608093710060
:104C60000FC0E092CF0020939207309393074093B8
:104C7000940750939507809172008064809372002E
:104C80000F900F900F900F90CF91DF911F910F9188
:104C9000FF90EF90DF90BF90AF909F908F907F90AC
:104CA0006F905F904F903F902F9008958230B9F0B1
:104CB000833028F4882351F0813051F50AC08430C4
:104CC00011F18430E8F0853019F520C010926E00A3
:104CD000089580916F008D7F80936F00089580917B
:104CE00070008D7F8093700081E08093B000809190
:104CF000B100887F84608093B1001092B300089562
:104D0000109271000895109272000895109273002D
:104D100008951F920F920FB60F9211242F933F9375
:104D20004F935F936F937F938F939F93AF93BF93B3
:104D3000EF93FF938091760790917707A091780782
:104D4000B09179070097A105B10551F1E0917A077B
:104D5000F0917B07808190917C07892780838091E7
:104D6000760790917707A0917807B0917907181688
:104D700019061A061B060CF58091760790917707A5
:104D8000A0917807B09179070197A109B1098093A3
:104D9000760790937707A0937807B09379070DC0B3
:104DA00080E00E945626E0917A07F0917B0790817F
:104DB00080917C07809589238083FF91EF91BF913B
:104DC000AF919F918F917F916F915F914F913F91A3
:104DD0002F910F900FBE0F901F9018951F920F925A
:104DE0000FB60F9211242F933F934F935F936F93BE
:104DF0007F938F939F93AF93BF93EF93FF93809194
:104E00007D0790917E07A0917F07B0918007009762
:104E1000A105B10551F1E0918107F09182078081F0
:104E2000909183078927808380917D0790917E07E9
:104E3000A0917F07B0918007181619061A061B0665
:104E40000CF580917D0790917E07A0917F07B0912E
:104E500080070197A109B10980937D0790937E0790
:104E6000A0937F07B09380070DC081E00E94562673
:104E7000E0918107F091820790818091830780956E
:104E800089238083FF91EF91BF91AF919F918F9183
:104E90007F916F915F914F913F912F910F900FBE36
:104EA0000F901F9018951F93CF93DF93EC0110E0A4
:104EB00005C08EE393E00E94F91F1F5FFE01E10F22
:104EC000F11D60816623A9F7DF91CF911F910895AD
:104ED0001F920F920FB60F9211242F933F934F936F
:104EE0005F936F937F938F939F93AF93BF93EF9352
:104EF000FF938EE393E00E946D20BC0197FD04C0F8
:104F00008AED96E00E940A228EE393E00E945C20E4
:104F10000E94241F90EC88E10FB6F894A895809326
:104F20006000909360000FBEFF91EF91BF91AF9131
:104F30009F918F917F916F915F914F913F912F91B1
:104F40000F900FBE0F901F901895089508958EE34F
:104F500093E00E94AD1F08958EE393E00E94391FF5
:104F600008952091560330915703309355032093B1
:104F70005403FC01858580FF07C081E090E0909399
:104F800057038093560304C01092570310925603A0
:104F900080915603909157030097F1F48091540348
:104FA0009091550381309105B9F4F89498E088E127
:104FB0000FB6F894A89580936000909360000FBEA0
:104FC000FFCFE0915403F0915503309761F48CEDDD
:104FD0008EBB87EA8ABD099580915603909157034D
:104FE0008130910571F308951F920F920FB60F92C1
:104FF00011242F933F934F935F936F937F938F93DE
:105000009F93AF93BF93EF93FF93809199079091F4
:105010009A07009729F0E0919907F0919A0709956E
:10502000FF91EF91BF91AF919F918F917F916F9180
:105030005F914F913F912F910F900FBE0F901F9056
:1050400018951F920F920FB60F9211242F933F9332
:105050004F935F936F937F938F939F93AF93BF9380
:10506000EF93FF9380919B0790919C07009729F005
:10507000E0919B07F0919C070995FF91EF91BF91FB
:10508000AF919F918F917F916F915F914F913F91E0
:105090002F910F900FBE0F901F9018951F920F9297
:1050A0000FB60F9211242F933F934F935F936F93FB
:1050B0007F938F939F93AF93BF93EF93FF938091D1
:1050C0009D0790919E07009729F0E0919D07F09130
:1050D0009E070995FF91EF91BF91AF919F918F919D
:1050E0007F916F915F914F913F912F910F900FBEE4
:1050F0000F901F9018951F920F920FB60F921124C8
:105100002F933F934F935F936F937F938F939F93CF
:10511000AF93BF93EF93FF9380919F079091A00768
:10512000009729F0E0919F07F091A0070995FF9162
:10513000EF91BF91AF919F918F917F916F915F910F
:105140004F913F912F910F900FBE0F901F90189588
:1051500080E090E0A8ECB2EC80939D0790939E07CE
:10516000A0939F07B093A00708951F920F920FB6C8
:105170000F9211242F933F938F939F93AF93BF93DD
:105180008091A5079091A607A091A707B091A807C5
:105190003091A9070196A11DB11D232F2D5F2D3739
:1051A00020F02D570196A11DB11D2093A9078093D2
:1051B000A5079093A607A093A707B093A80780918F
:1051C000A1079091A207A091A307B091A40701960F
:1051D000A11DB11D8093A1079093A207A093A307DF
:1051E000B093A407BF91AF919F918F913F912F9161
:1051F0000F900FBE0F901F9018959FB7F8942091B5
:10520000A1073091A2074091A3075091A40786B54A
:10521000A89B06C08F3F21F02F5F3F4F4F4F5F4F3E
:105220009FBF542F432F322F2227280F311D411D9E
:10523000511D82E0220F331F441F551F8A95D1F75D
:10524000B901CA010895EF92FF920F931F93CF9374
:10525000DF937B018C010E94FD28EB010FC00E94AF
:10526000FD286C1B7D0B83E0683E780738F00894BE
:10527000E108F10801091109C851DC4FE114F104FA
:105280000105110561F7DF91CF911F910F91FF90FB
:10529000EF90089584B7877F84BF88E10FB6F894B4
:1052A00080936000109260000FBE80E090E020E8E4
:1052B0000FB6F89420936100809361000FBE8EB307
:1052C0008C3D09F078C08AB5863A09F074C004C0F4
:1052D0008AB5873A09F073C081E08093B10794E002
:1052E0009093B2078093B007789484B5826084BDB0
:1052F00084B5816084BD85B58B7F85BD85B58260B1
:1053000085BD85B5816085BD80916E00816080938B
:105310006E0084B58F7B84BD85B5877F85BD809108
:105320006F008D7F80936F008091C0008F7B809392
:10533000C0008091C0008F7E8093C0008091C0002B
:1053400082608093C0008091C00081608093C00023
:105350008091C100877F8093C1008091C1008B7FC5
:105360008093C1008091C1008D7F8093C1008091A6
:10537000C10081608093C10080917A008460809335
:105380007A0080917A00826080937A0080917A001E
:10539000816080937A0080917A00806880937A009F
:1053A00090EC88E10FB6F894A895809360009093F4
:1053B00060000FBE08958EB38C3D09F489CF0E9422
:1053C000201C92CFE82FF0E0EF55FE4FE491F0E083
:1053D000E755FE4FE4918091580390E026E0880F56
:1053E000991F2A95E1F780937C0090917C008E2F85
:1053F0008F71892B80937C00E5FF04C080917B0036
:10540000806203C080917B008F7D80937B008091C0
:105410007A00806480937A0080917A0086FDFCCFC8
:105420002091780030917900932F80E030E0282B94
:10543000392BC90108951F93CF93DF93182FEB01E8
:1054400061E00E94172B209709F48FC0CF3FD10550
:1054500009F48EC0E12FF0E0E957FE4FE491E73008
:1054600009F44AC0E83080F4E33051F1E43030F41C
:10547000E130E1F0E23009F075C01DC0E43051F1D7
:10548000E63009F06FC030C0EA3009F451C0EB30AB
:1054900030F4E830C9F1E93009F064C03FC0EB30C6
:1054A00009F450C0EC3009F05DC054C084B5806888
:1054B00084BDC7BD61C084B5806284BDC8BD5CC009
:1054C00080918000806880938000D0938900C09391
:1054D000880052C080918000806280938000D093C9
:1054E0008B00C0938A0048C08091B0008068809390
:1054F000B000C093B30040C08091B0008062809340
:10550000B000C093B40038C0809190008068809350
:105510009000D0939900C09398002EC08091900085
:10552000806280939000D0939B00C0939A0024C027
:1055300080919000886080939000D0939D00C093EC
:105540009C001AC08091C00080688093C000C09306
:10555000CF0012C08091C00080628093C000C093D1
:10556000D0000AC0C038D1051CF4812F60E002C011
:10557000812F61E00E943B2BDF91CF911F91089515
:105580008730A9F1883080F48330E1F0843030F442
:10559000813011F1823009F049C021C08430B1F06E
:1055A000863009F043C01FC08A3079F18B3028F46F
:1055B000883019F18930D1F524C08B3061F18C30FD
:1055C000A9F52FC0809180008F7703C08091800063
:1055D0008F7D80938000089584B58F7702C084B555
:1055E0008F7D84BD08958091B0008F7703C0809136
:1055F000B0008F7D8093B0000895809190008F77E8
:1056000007C0809190008F7D03C080919000877FBC
:105610008093900008958091C0008F778093C000A0
:1056200008958091C0008F7D8093C000089590E020
:10563000FC01E359FE4F2491FC01ED5AFE4FE49129
:10564000EE23C1F0F0E0EE0FFF1FE75DFE4F859106
:105650009491DC01662341F49FB7F8948C912095D6
:1056600082238C939FBF08959FB7F8948C91822BCF
:105670008C939FBF08950F931F93DF93CF930F9247
:10568000CDB7DEB7282F30E0F901E957FE4F8491FE
:10569000F901E359FE4F14912D5A3E4FF90104913F
:1056A0000023E9F0882321F069830E94C02A6981E0
:1056B000E02FF0E0EE0FFF1FE95CFE4F8591949123
:1056C000DC01662331F49FB7F8948C911095812307
:1056D00004C09FB7F8948C91812B8C939FBF0F903F
:1056E000CF91DF911F910F910895CF93DF93EC013C
:1056F00061E070E04AE458E00E941D17CE0162E0CC
:1057000070E042EE57E00E941D17CE0163E070E0AA
:1057100042EB58E00E941D17CE0164E070E042E6C3
:1057200057E00E941D17CE0165E070E044E656E0A8
:105730000E941D17CE0169EC70E04DE050E10E941F
:105740001D17CE016AEC70E042E859E00E941D1777
:10575000CE016DEC70E04DEF50E10E941D17CE01BF
:105760006EEC70E045E651E10E941D17CE016FEC32
:1057700070E045E950E10E941D17CE016BEC70E02E
:105780004AE159E00E941D17CE016CEC70E047EC35
:105790005DE00E941D17CE016FE873E042E55AE01C
:1057A0000E941D1780E090E0DF91CF910895AF92A5
:1057B000BF92CF92DF92EF92FF920F931F93DF93EE
:1057C000CF93CDB7DEB7CC59D1400FB6F894DEBF3A
:1057D0000FBECDBF8E0107581F4FC8010E942B1B63
:1057E0002BECC22ED12CCC0EDD1EB8016E5F7F4F8C
:1057F000C601A8010E94681699E2E92EF12CEC0E70
:10580000FD1EC701B60144E050E00E941118C60118
:105810000E94752BC7010E94B3176E010894C11C2A
:10582000D11CC601B7010E9452138AE0A82EB12CE8
:10583000AC0EBD1EC501B7010E94EB128E01085EC1
:105840001F4FC801B7010E94AA14C70169EC70E09C
:10585000A6010E944718C7016AEC70E0A5010E94EA
:105860004718C7016EEC70E0A8010E944718C701F5
:105870006DEC70E0A8010E944718C7016FEC70E062
:10588000A8010E944718CE2C0F2D8C2D902F61E07F
:1058900070E00E948D1861E070E080E090E00E946E
:1058A0002329F3CF80E090E0A8ECB2EC8093AA0724
:1058B0009093AB07A093AC07B093AD070895629F98
:1058C000D001739FF001829FE00DF11D649FE00DF8
:1058D000F11D929FF00D839FF00D749FF00D659F59
:1058E000F00D9927729FB00DE11DF91F639FB00D58
:1058F000E11DF91FBD01CF011124089597FB092E69
:1059000007260AD077FD04D02ED006D000201AF446
:10591000709561957F4F0895F6F7909581959F4F0B
:105920000895A1E21A2EAA1BBB1BFD010DC0AA1FE0
:10593000BB1FEE1FFF1FA217B307E407F50720F0F8
:10594000A21BB30BE40BF50B661F771F881F991F73
:105950001A9469F760957095809590959B01AC01BC
:10596000BD01CF010895AA1BBB1B51E107C0AA1FAF
:10597000BB1FA617B70710F0A61BB70B881F991FF0
:105980005A95A9F780959095BC01CD0108952F9265
:105990003F924F925F926F927F928F929F92AF92BF
:1059A000BF92CF92DF92EF92FF920F931F93CF930C
:1059B000DF93CDB7DEB7CA1BDB0B0FB6F894DEBFA3
:1059C0000FBECDBF09942A88398848885F846E84C9
:1059D0007D848C849B84AA84B984C884DF80EE8013
:1059E000FD800C811B81AA81B981CE0FD11D0FB61C
:1059F000F894DEBF0FBECDBFED010895EE0FFF1F7F
:105A00000590F491E02D0994CF93DF9382309105B6
:105A100010F482E090E0E091BD07F091BE0740E015
:105A200050E020E030E026C060817181681779077E
:105A3000E0F06817790781F482819381211531059F
:105A400031F0D90113969C938E9312972BC09093AB
:105A5000BE078093BD0726C04115510519F0641794
:105A6000750718F4AB01E901DF019F0172816381C1
:105A7000E72FF62F3097C1F64115510501F1481B6C
:105A8000590B4430510580F412968D919C911397D7
:105A9000209719F09B838A8304C09093BE0780935C
:105AA000BD07FD01329646C0FD01E40FF51F81934D
:105AB00091934250504011965C934E933BC020917D
:105AC000BB073091BC072115310541F42091370304
:105AD000309138033093BC072093BB0720913903E2
