:100000000C94EB000C943E280C946B280C949828CC
:100010000C94C5280C9413010C9413010C94130137
:100020000C9413010C9413010C947F1C0C94130179
:100030000C94B2270C9413010C9413010C9413012B
:100040000C9413010C9438270C9413010C94130195
:100050000C9413010C94D3260C9413010C94FF28D8
:100060000C9413010C9405230C9413010C941301AC
:100070000C9413010C9413010C9413010C941301B0
:100080000C9413010C9413010C9413010C941301A0
:100090000C9413010C9413010C9413010C94130190
:1000A0000C9413010C9413010C9413011201100110
:1000B00002000008EB034A200100000100010902D0
:1000C0003E0002010080320904000001020201002A
:1000D000052400100104240204052406000107057C
:1000E000820308000209040100020A00000007055B
:1000F0000402100000070583021000000403090435
:1001000026034100560052002000430044004300F3
:10011000200042006F006F0074006C006F006100EF
:100120006400650072000000010000000024002748
:10013000002A002D00300000000000250028002BC0
:10014000002E003100000000002300260029002CB2
:10015000002F000404040204040304040202020247
:100160000206060606060602050302040504080147
:10017000402080400240800104080280402010029C
:10018000011040802010040000000C00000000005E
:10019000000000000000000000000000000B000054
:1001A0000007060504010E0F1000010000040506FB
:1001B00007202122232425271E1F4C0E590ED70E5F
:1001C000FC0F301164128B121E1A971BF12158225A
:1001D0008623F228B22C11241FBECFEFDAE0DEBF57
:1001E000CDBF14E0A0E0B1E0E0E2F5E602C005908A
:1001F0000D92A23BB107D9F716E0A2EBB4E001C023
:100200001D92AB36B107E1F711E0C6EDD1E004C0B5
:100210002297FE010E94602DCA3BD107C9F70E94B8
:10022000212C0C948E320C940000A0E2B0E0EBE1A3
:10023000F1E00C94272D69837A838B839C832D8333
:100240003E834F835887CE010196BE01675F7F4F83
:100250000E94F704CE010596BE016F5E7F4F0E949B
:10026000F7049985923078F089898230C0F0943013
:1002700019F4823041F4CBC0843019F4923079F40F
:10028000C6C0923051F481E02A859A89291709F471
:1002900080E08A87CE010996BCC0823051F481E0AB
:1002A0002A859A89291709F480E08A8BCE01419624
:1002B000B0C06D847E848F849888ED88FE880F8915
:1002C000188DE0E2F0E080E090E0DC01AA24BB249D
:1002D000650120E030E0A901B30161707070611523
:1002E0007105D1F02E0D3F1D401F511F1501260134
:1002F000280E391E4A1E5B1E81E090E0A0E0B0E0AF
:100300002E153F054007510718F080E090E0DC0112
:10031000820D931DA41DB51DAA0CBB1CCC1CDD1C9D
:1003200017FF09C061E0262E312C412C512CA22848
:10033000B328C428D528319749F0EE0CFF1C001FC4
:10034000111F9694879477946794C6CF6B897C89A4
:10035000EB85FC856E0F7F1F6E5F7F4F7C8F6B8FF1
:1003600061E0EA857A89E71709F460E06A8F6B8DAE
:100370007C8D10C0FC01E170F070309729F056952B
:100380004795379527955068B695A7959795879582
:100390006F5F7F4FB7FDEECF0CC0880F991FAA1F6C
:1003A000BB1F57FD8160220F331F441F551F615033
:1003B00070408030E0E09E07E0E0AE07E0E4BE077A
:1003C00060F36B8F7C8F6FE7E62EF12C012D112DE2
:1003D000E822F9220A231B2360E4E616F104010552
:1003E000110561F487FD0AC021153105410551054C
:1003F00029F0805C9F4FAF4FBF4F80788D8F9E8FCD
:10040000AF8FB8A383E0898FCE01499602C086E002
:1004100092E00E942904A096E2E10C94432DA8E109
:10042000B0E0E5E1F2E00C942F2D69837A838B83B1
:100430009C832D833E834F8358878E01075F1F4F18
:10044000CE010196B8010E94F70481E1E82EF12C5B
:10045000EC0EFD1ECE010596B7010E94F7049985AA
:10046000923008F483C08989823008F47BC02A85E1
:100470003A8923272A87943011F0923021F4981773
:1004800009F06CC071C0843039F41D861E861F8649
:10049000188A1C861B866AC0823019F484E089871A
:1004A00065C08B859C852B893C89821B930B9C871F
:1004B0008B872D853E854F855889ED88FE880F896D
:1004C000188D2E153F054007510738F4220F331FB2
:1004D000441F551F01979C878B876FE170E0A12C0B
:1004E000B12CC12CA0E4DA2E80E090E0DC012E15C6
:1004F0003F054007510740F08A299B29AC29BD29B7
:100500002E193F09400B510BD694C794B794A7946A
:10051000220F331F441F551F6150704041F76FE792
:10052000E62EF12C012D112DE822F9220A231B239E
:1005300060E4E616F1040105110561F487FD0AC0C7
:10054000211531054105510529F0805C9F4FAF4FC2
:10055000BF4F80788D879E87AF87B88B8E01075FEE
:100560001F4F04C0870102C006E012E0C8010E94CC
:1005700029046896EAE00C944B2DA8E1B0E0E3EC86
:10058000F2E00C94332D69837A838B839C832D83D3
:100590003E834F8358878E01075F1F4FCE01019620
:1005A000B8010E94F70481E1E82EF12CEC0EFD1E4B
:1005B000CE010596B7010E94F7048985823040F08C
:1005C0008989823028F0C801B7010E94600501C006
:1005D0008FEF6896E6E00C944F2DA8E1B0E0E3EFD2
:1005E000F2E00C94332D69837A838B839C832D8373
:1005F0003E834F8358878E01075F1F4FCE010196C0
:10060000B8010E94F70481E1E82EF12CEC0EFD1EEA
:10061000CE010596B7010E94F7048985823040F02B
:100620008989823028F0C801B7010E94600501C0A5
:1006300081E06896E6E00C944F2DA8E0B0E0E3E29C
:10064000F3E00C94332D7B018C0183E08983D80186
:10065000C7018827B7FD83959927AA27BB27282F8D
:100660008A83E114F1040105110519F482E08983FC
:1006700037C08EE190E09C838B83222389F080E059
:10068000E81680E0F80680E0080780E8180769F1BE
:1006900010950095F094E094E11CF11C011D111DD2
:1006A000ED82FE820F831887C801B7010E94CF0335
:1006B0009C01215030401216130694F4022E04C0FF
:1006C000EE0CFF1C001F111F0A94D2F7ED82FE8270
:1006D0000F8318878EE190E0821B930B9C838B83A2
:1006E000CE0101960E94290404C060E070E080E021
:1006F0009FEC2896E6E00C944F2DACE0B0E0E3E8E8
:10070000F3E00C94372D69837A838B839C83CE012D
:100710000196BE016B5F7F4F0E94F7048D8182308E
:1007200081F1823070F1843021F48E81882369F167
:100730000AC02F81388537FD24C06E812F313105E5
:100740003CF0662311F120E030E040E050E821C0A9
:100750008EE190E0821B930B29853A854B855C8561
:1007600004C056954795379527958A95D2F7662305
:1007700081F050954095309521953F4F4F4F5F4FF9
:1007800008C020E030E0A90104C02FEF3FEF4FEF99
:100790005FE7B901CA012C96E2E00C94532DAF92A9
:1007A000BF92CF92DF92EF92FF920F931F937B0144
:1007B0008C0180E0E81680E0F80681E0080780E020
:1007C000180758F4EFEFEE16F1040105110509F0D2
:1007D00090F480E090E0DC0117C0F0E0EF16F0E06C
:1007E000FF06F0E00F07F1E01F0750F480E190E012
:1007F000A0E0B0E009C088E090E0A0E0B0E004C074
:1008000088E190E0A0E0B0E020E230E040E050E09D
:10081000281B390B4A0B5B0B5701680104C0D694A7
:10082000C794B794A7948A95D2F7D601C501825F81
:100830009D4FFC018081281B310941095109C901E3
:100840001F910F91FF90EF90DF90CF90BF90AF90EE
:100850000895EF92FF920F931F93CF93DF93FC01C4
:10086000248135814681578161818081823020F4E5
:100870004061EFEFF0E0A3C0843009F49BC0823008
:1008800009F492C0211531054105510509F48FC0C5
:100890000280F381E02D8FEFE238F8070CF05AC0A8
:1008A000C2E8DFEFCE1BDF0BCA31D1056CF5790151
:1008B0008A010C2E04C016950795F794E7940A94C4
:1008C000D2F781E090E0A0E0B0E00C2E04C0880FE9
:1008D000991FAA1FBB1F0A94D2F70197A109B1095A
:1008E00082239323A423B52321E030E040E050E0AD
:1008F0000097A105B10519F420E030E0A9012E29E7
:100900003F29402B512B03C020E030E0A901DA0140
:10091000C9018F779070A070B07080349105A105E7
:10092000B10539F427FF09C0205C3F4F4F4F5F4F9F
:1009300004C0215C3F4F4F4F5F4FE1E0F0E02030BB
:1009400080E0380780E0480780E4580728F5E0E0B9
:10095000F0E022C0E038F1056CF5E158FF4FDA0114
:10096000C9018F779070A070B07080349105A10597
:10097000B10539F427FF09C0205C3F4F4F4F5F4F4F
:1009800004C0215C3F4F4F4F5F4F57FF05C0569546
:10099000479537952795319687E056954795379532
:1009A00027958A95D1F70BC0E0E0F0E005C0E0E0C4
:1009B000F0E005C0EFEFF0E020E030E0A9018E2F7D
:1009C000879588278795942F9F77679566276795E2
:1009D000E695E22EA92FA82BFE2FF62B622F732F60
:1009E0008A2F9F2FCDB7DEB7E6E00C944F2DDC01A8
:1009F000FB012C9111963C91119712968C911297B4
:100A0000482F4F7750E0982F991F9927991F1396D9
:100A10006C911397862F880F892B90E0661F6627AD
:100A2000661F6183009739F5211531054105510590
:100A300011F482E029C082E89FEF9383828367E00C
:100A4000220F331F441F551F6A95D1F783E080831F
:100A500009C0220F331F441F551F828193810197C4
:100A600093838283203080E0380780E0480780E469
:100A7000580778F320C08F3F910579F4211531058F
:100A80004105510519F484E08083089544FF03C0B3
:100A900081E0808310C010820EC08F5790409383F6
:100AA000828383E0808387E0220F331F441F551F1A
:100AB0008A95D1F7506424833583468357830895FC
:100AC000FC01DB019081923008F449C08C918230A6
:100AD00008F445C0943051F461818430B1F5119629
:100AE0002C91119730E0261B310941C0843021F050
:100AF000923041F48230B1F111968C911197882394
:100B0000A1F12DC06181823001F111968C91119774
:100B10006817D9F42281338112968D919C91139795
:100B20008217930794F028173907BCF02481358188
:100B30004681578114968D919D910D90BC91A02D69
:100B400082179307A407B50718F4662341F00DC078
:100B5000281739074A075B0728F4662331F021E09C
:100B600030E005C020E030E002C02FEF3FEFC901C8
:100B70000895CF93DF93EB0100D000D000D0EDB704
:100B8000FEB7319628813981ADB7BEB712963C9336
:100B90002E93119720E031E033832283DC011C96F1
:100BA0008D919C911D97958384830E94E12F88816C
:100BB00099810496998388838DB79EB706960FB660
:100BC000F8949EBF0FBE8DBFDF91CF910895EF9235
:100BD000FF920F931F93DF93CF9300D000D00F921B
:100BE000CDB7DEB77C018B01DB01ED91FC911D825D
:100BF00080819181A281B38189839A83AB83BC83F5
:100C0000CE01019660E070E04AE050E00E94972E2D
:100C1000F70175876487D8018D919C91119704968F
:100C200011969C938E930F900F900F900F900F90B2
:100C3000CF91DF911F910F91FF90EF9008950E9447
:100C40009E129C012C5F3F4FC901089526E333E0BB
:100C5000FC01318320830E9498120895CF93DF9383
:100C6000EC0186E393E099838883CE010E94981279
:100C7000CE010E946622DF91CF910895CF92DF923C
:100C8000EF92FF920F931F93CF93DF93EC01FB0141
:100C90008A01690165E070E041E050E09F01EE24C7
:100CA000FF240E94A91286E393E099838883DD865E
:100CB000CC86DF91CF911F910F91FF90EF90DF9045
:100CC000CF900895CF92DF92EF92FF920F931F93F0
:100CD000CF93DF93EC016B017E019F2D60E070E00C
:100CE00040E050E02FEF3FEF00E010E0EE24FF2463
:100CF0000E94A91286E393E099838883CE01B6010E
:100D00000E945A13DF91CF911F910F91FF90EF90A6
:100D1000DF90CF9008950F931F93CF93DF93EC0153
:100D20008EE090E00E946B228C01BE010E94620660
:100D3000C801DF91CF911F910F910895CF93DF9359
:100D40009C01EB018DB79EB708970FB6F8949EBF34
:100D50000FBE8DBFADB7BEB7119688819981EDB733
:100D6000FEB79283818385E091E013969C938E93E6
:100D70001297F9018485958515969C938E93149707
:100D80008685978517969C938E9316970E94E12FE0
:100D9000888199810696998388838DB79EB7089636
:100DA0000FB6F8949EBF0FBE8DBFDF91CF9108950F
:100DB000CF92DF92EF92FF920F931F93DF93CF9327
:100DC000CDB7DEB728970FB6F894DEBF0FBECDBF04
:100DD0006C018B01FB01E080F1801B821886F7011A
:100DE00080819181A281B3818C839D83AE83BF83F7
:100DF000CE01049660E070E04AE050E00E94972E39
:100E0000F60175876487F701848195819A838983C8
:100E1000CE01019660E070E04AE050E00E94972E1B
:100E2000F60177876687F801808191810896918322
:100E3000808328960FB6F894DEBF0FBECDBFCF914A
:100E4000DF911F910F91FF90EF90DF90CF90089569
:100E50000E949E129C012A5F3F4FC901089524E41D
:100E600033E0FC01318320830E9498120895CF93D0
:100E7000DF93EC0184E493E099838883CE010E94A0
:100E80009812CE010E946622DF91CF910895AF9211
:100E9000BF92CF92DF92EF92FF920F931F93CF9367
:100EA000DF93EC01FB01DA015901680164E070E0B5
:100EB00041E050E09F018D01EE24FF240E94A91221
:100EC00084E493E099838883BD86AC86DF86CE86F2
:100ED000DF91CF911F910F91FF90EF90DF90CF9016
:100EE000BF90AF900895CF92DF92EF92FF920F9351
:100EF0001F93CF93DF93EC016B017E019F2D60E088
:100F000070E040E050E02FEF3FEF00E010E0EE2413
:100F1000FF240E94A91284E493E099838883CE0180
:100F2000B6010E945A13DF91CF911F910F91FF904C
:100F3000EF90DF90CF9008950F931F93CF93DF939F
:100F4000EC0180E190E00E946B228C01BE010E94C6
:100F50007307C801DF91CF911F910F9108950895F4
:100F600008950E949E12089522E533E0FC0131832A
:100F700020830E9498120895CF93DF93EC0182E5BD
:100F800093E099838883CE010E949812CE010E943B
:100F90006622DF91CF910895EF92FF920F931F93F6
:100FA000CF93DF93EC019B018A0162E070E041E0A6
:100FB00050E0EE24FF240E94A91282E593E0998379
:100FC0008883DF91CF911F910F91FF90EF9008954B
:100FD000CF92DF92EF92FF920F931F93CF93DF9305
:100FE000EC016B017E019F2D60E070E040E050E07D
:100FF0002FEF3FEF00E010E0EE24FF240E94A91243
:1010000082E593E099838883CE01B6010E945A134A
:10101000DF91CF911F910F91FF90EF90DF90CF90D4
:1010200008950F931F93CF93DF93EC018CE090E032
:101030000E946B228C01BE010E94E807C801DF916B
:10104000CF911F910F910895089508950E949E12C7
:10105000089520E633E0FC01318320830E9498123A
:101060000895CF93DF93EC0180E693E09983888322
:10107000CE010E949812CE010E946622DF91CF918C
:101080000895CF92DF92EF92FF920F931F93CF9329
:10109000DF93EC016B017E019F2D60E070E040E08A
:1010A00050E02FEF3FEF00E010E0EE24FF240E941D
:1010B000A91280E693E099838883CE01B6010E944D
:1010C0005A13DF91CF911F910F91FF90EF90DF9016
:1010D000CF9008950F931F93CF93DF93EC018CE093
:1010E00090E00E946B228C01BE010E944108C80161
:1010F000DF91CF911F910F910895089508950E9457
:101100009E1208952EE633E0FC01318320830E9475
:1011100098120895CF93DF93EC018EE693E09983C4
:101120008883CE010E949812CE010E946622DF9130
:10113000CF910895CF92DF92EF92FF920F931F937A
:10114000CF93DF93EC016B017E019F2D60E070E097
:1011500040E050E02FEF3FEF00E010E0EE24FF24EE
:101160000E94A9128EE693E099838883CE01B6018E
:101170000E945A13DF91CF911F910F91FF90EF9032
:10118000DF90CF9008950F931F93CF93DF93EC01DF
:101190008CE090E00E946B228C01BE010E949A08B4
:1011A000C801DF91CF911F910F910895089508957F
:1011B0000E949E1208952CE733E0FC0131832083C6
:1011C0000E9498120895CF93DF93EC018CE793E08F
:1011D00099838883CE010E949812CE010E946622D4
:1011E000DF91CF910895EF92FF920F931F93CF93CA
:1011F000DF93EC019B018A016BEC70E041E050E071
:10120000EE24FF240E94A9128CE793E0998388833F
:10121000DF91CF911F910F91FF90EF900895CF92A2
:10122000DF92EF92FF920F931F93CF93DF93EC0126
:101230006B017E019F2D60E070E040E050E02FEFF9
:101240003FEF00E010E0EE24FF240E94A9128CE79B
:1012500093E099838883CE01B6010E945A13DF91EF
:10126000CF911F910F91FF90EF90DF90CF90089555
:101270000F931F93CF93DF93EC018CE090E00E94DB
:101280006B228C01BE010E940F09C801DF91CF9132
:101290001F910F910895089508950E949E12089538
:1012A0002AE833E0FC01318320830E9498120895DC
:1012B000CF93DF93EC018AE893E099838883CE0192
:1012C0000E949812CE010E946622DF91CF9108956C
:1012D000CF92DF92EF92FF920F931F93CF93DF9302
:1012E000EC016B017E019F2D60E070E040E050E07A
:1012F0002FEF3FEF00E010E0EE24FF240E94A91240
:101300008AE893E099838883CE01B6010E945A133C
:10131000DF91CF911F910F91FF90EF90DF90CF90D1
:1013200008950F931F93CF93DF93EC018CE090E02F
:101330000E946B228C01BE010E946809C801DF91E6
:10134000CF911F910F910895CF93DF93EB0100D0C0
:1013500000D000D0EDB7FEB7319628813981ADB706
:10136000BEB712963C932E9311972EE031E0338353
:101370002283DC011C968D919C911D97958384831B
:101380000E94E12F888199810496998388838DB783
:101390009EB706960FB6F8949EBF0FBE8DBFDF9125
:1013A000CF910895EF92FF920F931F93DF93CF9306
:1013B00000D000D00F92CDB7DEB77C018B01DB01EE
:1013C000ED91FC911D8280819181A281B3818983FD
:1013D0009A83AB83BC83CE01019660E070E04AE063
:1013E00050E00E94972EF70175876487D8018D9190
:1013F0009C911197049611969C938E930F900F9049
:101400000F900F900F90CF91DF911F910F91FF9050
:10141000EF9008950E949E129C012C5F3F4FC901DE
:10142000089528E933E0FC01318320830E9498125B
:101430000895CF93DF93EC0188E993E09983888343
:10144000CE010E949812CE010E946622DF91CF91B8
:101450000895CF92DF92EF92FF920F931F93CF9355
:10146000DF93EC01FB018A0169016FE873E041E061
:1014700050E09F01EE24FF240E94A91288E993E026
:1014800099838883DD86CC86DF91CF911F910F9160
:10149000FF90EF90DF90CF900895CF92DF92EF9280
:1014A000FF920F931F93CF93DF93EC016B017E01AB
:1014B0009F2D60E070E040E050E02FEF3FEF00E054
:1014C00010E0EE24FF240E94A91288E993E099839A
:1014D0008883CE01B6010E945A13DF91CF911F91EC
:1014E0000F91FF90EF90DF90CF9008950F931F938F
:1014F000CF93DF93EC018EE090E00E946B228C0191
:10150000BE010E944D0AC801DF91CF911F910F913A
:101510000895089508950E949E12089526EA33E0E2
:10152000FC01318320830E9498120895CF93DF93AA
:10153000EC0186EA93E099838883CE010E94981299
:10154000CE010E946622DF91CF910895EF92FF9223
:101550000F931F93CF93DF93EC019B018A016CECF7
:1015600070E041E050E0EE24FF240E94A91286EAD8
:1015700093E099838883DF91CF911F910F91FF9022
:10158000EF900895CF92DF92EF92FF920F931F9307
:10159000CF93DF93EC016B017E019F2D60E070E043
:1015A00040E050E02FEF3FEF00E010E0EE24FF249A
:1015B0000E94A91286EA93E099838883CE01B6013E
:1015C0000E945A13DF91CF911F910F91FF90EF90DE
:1015D000DF90CF9008950F931F93CF93DF93EC018B
:1015E0008CE090E00E946B228C01BE010E94C20A36
:1015F000C801DF91CF911F910F910895CF93DF9391
:101600009C01EB018DB79EB708970FB6F8949EBF6B
:101610000FBE8DBFADB7BEB7119688819981EDB76A
:10162000FEB79283818383E191E013969C938E931E
:101630001297F9018485958515969C938E9314973E
:101640008685978517969C938E9316970E94E12F17
:10165000888199810896998388838DB79EB708966B
:101660000FB6F8949EBF0FBE8DBFDF91CF91089546
:10167000CF92DF92EF92FF920F931F93DF93CF935E
:10168000CDB7DEB72A970FB6F894DEBF0FBECDBF39
:101690006C018B01FB01E080F1801A861D82F7014D
:1016A00080819181A281B38189839A83AB83BC833A
:1016B000CE01019660E070E04AE050E00E94972E73
:1016C000F60175876487F70184819581A681B781CA
:1016D0008E839F83A887B987CE01069660E070E06D
:1016E0004AE050E00E94972EF60177876687F8015E
:1016F000808191810896918380832A960FB6F89411
:10170000DEBF0FBECDBFCF91DF911F910F91FF9034
:10171000EF90DF90CF9008950E949E129C01285F69
:101720003F4FC901089524EB33E0FC01318320834E
:101730000E9498120895CF93DF93EC0184EB93E01D
:1017400099838883CE010E949812CE010E9466225E
:10175000DF91CF910895CF92DF92EF92FF920F9396
:101760001F93CF93DF93EC016B017E019F2D60E00F
:1017700070E040E050E02FEF3FEF00E010E0EE249B
:10178000FF240E94A91284EB93E099838883CE0101
:10179000B6010E945A13DF91CF911F910F91FF90D4
:1017A000EF90DF90CF9008950F931F93CF93DF9327
:1017B000EC0180E190E00E946B228C01BE010E944E
:1017C000AB0BC801DF91CF911F910F910895FC01E0
:1017D000848595850895FC018685978508950895EB
:1017E00008950E949E12089522EC33E0FC0131839B
:1017F00020830E9498120895CF93DF93EC0182EC2E
:1018000093E099838883CE010E949812CE010E94B2
:101810006622DF91CF910895CF92DF92EF92FF92EF
:101820000F931F93CF93DF93EC016B017E019F2DEC
:1018300060E070E040E050E02FEF3FEF00E010E0AC
:10184000EE24FF240E94A91282EC93E099838883FE
:10185000CE01B6010E945A13DF91CF911F910F91D3
:10186000FF90EF90DF90CF9008950F931F93CF9349
:10187000DF93EC018CE090E00E946B228C01BE01B2
:101880000E940C0CC801DF91CF911F910F91089518
:10189000089508950E949E12089520ED33E0FC0102
:1018A000318320830E9498120895CF93DF93EC0137
:1018B00080ED93E099838883CE010E949812CE0137
:1018C0000E946622DF91CF910895CF92DF92EF922E
:1018D000FF920F931F93CF93DF93EC016B017E0177
:1018E0009F2D60E070E040E050E02FEF3FEF00E020
:1018F00010E0EE24FF240E94A91280ED93E099836A
:101900008883CE01B6010E945A13DF91CF911F91B7
:101910000F91FF90EF90DF90CF9008950F931F935A
:10192000CF93DF93EC018CE090E00E946B228C015E
:10193000BE010E94650CC801DF91CF911F910F91EC
:101940000895089508950E949E1208952EED33E0A3
:10195000FC01318320830E9498120895CF93DF9376
:10196000EC018EED93E099838883CE010E9498125A
:10197000CE010E946622DF91CF910895CF92DF922F
:10198000EF92FF920F931F93CF93DF93EC016B01C4
:101990007E019F2D60E070E040E050E02FEF3FEFD0
:1019A00000E010E0EE24FF240E94A9128EED93E0E7
:1019B00099838883CE01B6010E945A13DF91CF919B
:1019C0001F910F91FF90EF90DF90CF9008950F93AC
:1019D0001F93CF93DF93EC018CE090E00E946B2289
:1019E0008C01BE010E94BE0CC801DF91CF911F91F6
:1019F0000F91089581E00895CF93DF93EC018A81E0
:101A00009B8140E050E068EC71E40E94E0188A811C
:101A10009B8140E050E068EC71E40E94E5181C8274
:101A20001A8619861C861B86DF91CF910895CF9365
:101A3000DF93EC018A819B8140E050E068EC71E427
:101A40000E94E0188A819B8140E050E068EC71E4DC
:101A50000E94E5181C821A8619861C861B86DF9157
:101A6000CF910895CF92DF92EF92FF920F931F9341
:101A7000CF93DF93EC018B018A819B810E94EA184E
:101A80009E838D838A819B810E94F51898878F831E
:101A90008B859C85800F911F9C878B878A819B817A
:101AA0000E940019882391F08A819B8140E050E0D8
:101AB00068EC71E40E94E0188A819B8140E050E06C
:101AC00068E471EC0E94E51801E001C000E08A8141
:101AD0009B810E942619882389F08A819B8140E09E
:101AE00050E068E471EC0E94E0188A819B8140E03C
:101AF00050E068EC71E40E94E51801E089859A8560
:101B0000009771F48B859C8521E0853F92070CF44A
:101B10008EC081E090E09A8789871C861B8687C0EB
:101B2000002309F084C08A819B810E949A192A812E
:101B30003B81882339F1C90140E050E0BA010E949D
:101B4000E0188A819B8140E050E0BA010E94E518CC
:101B500081E08C831A8619861C861B868A819B816C
:101B60000E94BE157C018A819B810E94B8156C0180
:101B70008CE090E00E946B228C01B701A6010E94CC
:101B8000F30843C0C9010E9474192A813B8188234C
:101B900081F0C90140E050E068EC71E40E94E01877
:101BA0008A819B8140E050E068EC71E40E94E51876
:101BB0003EC0C9010E944C198823C9F18A819B81CA
:101BC00040E050E0BA010E94E0188A819B8140E029
:101BD00050E0BA010E94E51881E08C831A861986CC
:101BE0001C861B868A819B810E94BE157C018A818E
:101BF0009B810E94B8156C018CE090E00E946B22E2
:101C00008C01B701A6010E94A60A8A819B810E94CD
:101C10001A1AB8010E9467140115110541F0D80184
:101C2000ED91FC910280F381E02DC8010995DF91CF
:101C3000CF911F910F91FF90EF90DF90CF9008957B
:101C40002CEE33E0FC01318320830E947112089551
:101C5000CF93DF93EC018CEE93E099838883CE01E0
:101C60000E947112CE010E946622DF91CF910895E9
:101C7000CF93DF93EC010E947F128CEE93E0998367
:101C800088831E821D8218861F821A8619861C86EA
:101C90001B86DF91CF91089580E090E0A8ECB2EC34
:101CA0008093B2049093B304A093B404B093B504AA
:101CB000089580E090E0A8ECB2EC8093B604909395
:101CC000B704A093B804B093B904089580E00895D0
:101CD00021E0FC012483089508952CEF33E0FC01FA
:101CE000318320830E9471120895CF93DF93EC011A
:101CF0008CEF93E099838883CE010E947112CE010C
:101D00000E946622DF91CF910895CF93DF93EC017B
:101D10000E947F128CEF93E099838883DF91CF91AB
:101D20000895CF93DF93FC0176836583C281D381CD
:101D3000882777FD8095982F0E941D03AB01BC0179
:101D4000CE010E94E018DF91CF910895CF93DF93E9
:101D5000FC0170876783C281D381882777FD8095D6
:101D6000982F0E941D03AB01BC01CE010E94E51813
:101D7000DF91CF9108950F931F93CF93DF93EC01E1
:101D80008B01CB010E94E70B9C01CE01B9010E949F
:101D9000910EC8010E94EB0BBC01CE010E94A60E61
:101DA00081E08C83DF91CF911F910F91089580E0A6
:101DB00090E0A8ECB2EC8093BA049093BB04A0939B
:101DC000BC04B093BD04089581E00895CF93DF93E0
:101DD000EC018A819B8140E050E060EF71EC0E9451
:101DE000E0188A819B8140E050E060EF71E40E943E
:101DF000E5181E821D821C8218861F82DF91CF91FA
:101E00000895CF93DF93EC018A819B8140E050E0FD
:101E1000BA010E94E0188A819B8140E050E0BA013B
:101E20000E94E5181E821D821C8218861F82DF9187
:101E3000CF910895CF92DF92EF92FF920F931F936D
:101E4000CF93DF93EC018D819E81680F791F7E8394
:101E50006D838F8198850097E1F424E0623E7207DC
:101E60000CF499C081E090E098878F831E821D82D8
:101E70008A819B8140E050E060EF71EC0E94E018A5
:101E80008A819B8140E050E060EF71EC0E94E51890
:101E900082C08130910559F4683C71050CF47BC017
:101EA0001E821D8282E090E098878F8374C082300A
:101EB000910509F070C08A819B81A1E06E357A0797
:101EC0006CF50E947419882309F465C08A819B818E
:101ED00040E050E0BA010E94E0188A819B8140E016
:101EE00050E0BA010E94E5181E821D8281E08C83B9
:101EF00018861F828A819B810E94BE157C018A817F
:101F00009B810E94B8156C018CE090E00E946B22CE
:101F10008C01B701A6010E94F3082BC040E050E0FD
:101F2000BA010E94E0188A819B8140E050E0BA012A
:101F30000E94E5181E821D8281E08C8318861F8214
:101F40008A819B810E944C19882329F18A819B8177
:101F50000E94BE157C018A819B810E94B8156C018C
:101F60008CE090E00E946B228C01B701A6010E94D8
:101F7000A60A8A819B810E941A1AB8010E946714DE
:101F80000115110541F0D801ED91FC910280F3811A
:101F9000E02DC8010995DF91CF911F910F91FF901E
:101FA000EF90DF90CF9008952CE034E0FC01318376
:101FB00020830E9471120895CF93DF93EC018CE08F
:101FC00094E099838883CE010E947112CE010E9411
:101FD0006622DF91CF910895CF93DF93EC010E94A9
:101FE0007F128CE094E0998388831E821D8218867C
:101FF0001F82DF91CF91089580E090E0A8ECB2ECD1
:102000008093BE049093BF04A093C004B093C10416
:10201000089581E00895CF93DF93EC018A819B813D
:1020200040E050E060EA71E40E94E0188A819B8100
:1020300040E050E060EA71E40E94E5181A861986D3
:102040001C861B861C82DF91CF910895CF93DF936E
:10205000EC018A819B8140E050E0BA010E94E018C7
:102060008A819B8140E050E0BA010E94E5181A86FF
:1020700019861C861B861C82DF91CF910895CF9212
:10208000DF92EF92FF920F931F93CF93DF93EC01B8
:1020900089859A85680F791F7A8769878B859C85E2
:1020A000009729F4663971050CF4A5C008C0813089
:1020B0009105B1F422E0683572070CF49CC08A8166
:1020C0009B8140E050E060EA71EC0E94E0188A8158
:1020D0009B8140E050E060EA71E40E94E51834C062
:1020E00082309105C9F58A819B81A3E0673B7A071D
:1020F00034F121E02C831C861B861A86198640E069
:1021000050E0BA010E94E0188A819B8140E050E0D3
:10211000BA010E94E5188A819B810E94BE157C014C
:102120008A819B810E94B8156C018CE090E00E942E
:102130006B228C01B701A6010E94A60A4AC00E9428
:102140007419882309F457C01A8619868B859C85D3
:1021500001969C878B874FC08330910509F04BC057
:102160008A819B81643671057CF440E050E060EA2E
:1021700071EC0E94E0188A819B8140E050E060EAA7
:1021800071EC0E94E51837C021E02C831C861B8669
:102190001A86198640E050E0BA010E94E0188A8150
:1021A0009B8140E050E0BA010E94E5188A819B8142
:1021B0000E94BE157C018A819B810E94B8156C012A
:1021C0008CE090E00E946B228C01B701A6010E9476
:1021D000F3088A819B810E941A1AB8010E94671431
:1021E0000115110541F0D801ED91FC910280F381B8
:1021F000E02DC8010995DF91CF911F910F91FF90BC
:10220000EF90DF90CF9008952CE134E0FC01318312
:1022100020830E9471120895CF93DF93EC018CE12B
:1022200094E099838883CE010E947112CE010E94AE
:102230006622DF91CF910895CF93DF93EC010E9446
:102240007F128CE194E0998388831E821D82188618
:102250001F821A8619861C861B86DF91CF910895EE
:1022600080E090E0A8ECB2EC8093C2049093C304A9
:10227000A093C404B093C504089581E00895CF935A
:10228000DF93EC018A819B8140E050E060EA71E4D9
:102290000E94E0188A819B8140E050E060EA71EC86
:1022A0000E94E5181A8619861C861B861C82DF91FF
:1022B000CF910895CF93DF93EC018A819B8140E019
:1022C00050E0BA010E94E0188A819B8140E050E012
:1022D000BA010E94E5181A8619861C861B861C8284
:1022E000DF91CF910895CF92DF92EF92FF920F93FB
:1022F0001F93CF93DF93EC0189859A85680F791F2F
:102300007A8769878B859C85009729F466397105E2
:102310000CF4A5C008C081309105B1F422E0683505
:1023200072070CF49CC08A819B8140E050E060EA17
:1023300071E40E94E0188A819B8140E050E060EAED
:1023400071EC0E94E51834C082309105C9F58A818C
:102350009B81A3E0673B7A0734F121E02C831C8644
:102360001B861A86198640E050E0BA010E94E018E8
:102370008A819B8140E050E0BA010E94E5188A8181
:102380009B810E94BE157C018A819B810E94B815A9
:102390006C018CE090E00E946B228C01B701A601D9
:1023A0000E94A60A4AC00E947419882309F457C0E3
:1023B0001A8619868B859C8501969C878B874FC0D2
:1023C0008330910509F04BC08A819B816436710589
:1023D0007CF440E050E060EA71EC0E94E0188A81F1
:1023E0009B8140E050E060EA71EC0E94E51837C044
:1023F00021E02C831C861B861A86198640E050E05B
:10240000BA010E94E0188A819B8140E050E0BA0145
:102410000E94E5188A819B810E94BE157C018A81F9
:102420009B810E94B8156C018CE090E00E946B22A9
:102430008C01B701A6010E94F3088A819B810E944A
:102440001A1AB8010E9467140115110541F0D8014C
:10245000ED91FC910280F381E02DC8010995DF9197
:10246000CF911F910F91FF90EF90DF90CF90089543
:102470002CE234E0FC01318320830E947112089524
:10248000CF93DF93EC018CE294E099838883CE01B3
:102490000E947112CE010E946622DF91CF910895B1
:1024A000CF93DF93EC010E947F128CE294E099833A
:1024B00088831E821D8218861F821A8619861C86B2
:1024C0001B86DF91CF91089580E090E0A8ECB2ECFC
:1024D0008093C6049093C704A093C804B093C90422
:1024E00008952CE334E0FC013183208308952CE32C
:1024F00034E0FC01318320830E9466220895FC01B0
:102500008CE394E0918380837383628314820895C3
:10251000FC018481089580E090E0A8ECB2EC809307
:10252000CA049093CB04A093CC04B093CD04089537
:102530002CE434E0FC013183208308958AE190E0AB
:1025400008952CE434E0FC01318320830E9466224C
:102550000895EF92FF920F931F93FC018CE494E097
:10256000918380837383628355834483F782E682F9
:1025700031872087138702871F910F91FF90EF907B
:102580000895FC01828193810895FC0180859185E5
:102590000895FC01828593850895CF92DF92EF9292
:1025A000FF920F931F93DF93CF93CDB7DEB765975D
:1025B0000FB6F894DEBF0FBECDBF7C016B01FB01EF
:1025C000008111811A821E821B861D8A188AF801D9
:1025D00082859385A485B5858F839887A987BA87D7
:1025E000CE01079660E070E04AE050E00E94972E2E
:1025F000F70173836283DE011396F8013E9683E050
:1026000001900D928150E1F7CE01039660E070E0F9
:102610004AE050E00E94972EF70175836483F80129
:1026200081898983CE01019660E070E04AE050E044
:102630000E94972EF70177836683F8018289938938
:10264000A489B5898C879D87AE87BF87CE010C96FC
:1026500060E070E04AE050E00E94972EF701718739
:102660006087F80186899789A08DB18D898B9A8BB7
:10267000AB8BBC8BCE01419660E070E04AE050E04D
:102680000E94972EF70173876287F60180819181FE
:102690004A969183808365960FB6F894DEBF0FBE8D
:1026A000CDBFCF91DF911F910F91FF90EF90DF9001
:1026B000CF900895EF92FF920F931F93DF93CF93E4
:1026C00000D0CDB7DEB78C017A8369837E01089490
:1026D000E11CF11CB7010E94CD12D801ED91FC91D3
:1026E0000680F781E02DC801B70109950F900F9082
:1026F000CF91DF911F910F91FF90EF900895CF92AE
:10270000DF92EF92FF920F931F93CF93DF93EC0131
:102710008B01DB01ED90FC90C0901403D090150369
:10272000E881F9810480F581E02D0995EDB7FEB7C8
:1027300072970FB6F894FEBF0FBEEDBF3196ADB7DE
:10274000BEB71296FC92EE9211972CE131E03383E2
:102750002283D582C482978386838A819B819187D5
:1027600080878C819D81938782878E819F819587C9
:10277000848788859985978786878A859B85918BAD
:10278000808B0E94E12FF801808191814A9691838C
:1027900080832DB73EB72E5E3F4F0FB6F8943EBFF5
:1027A0000FBE2DBFDF91CF911F910F91FF90EF9042
:1027B000DF90CF900895EF92FF920F931F93DF93D6
:1027C000CF9300D0CDB7DEB78C017A8369837E01C9
:1027D0000894E11CF11CB7010E947F13D801ED9110
:1027E000FC910084F185E02DC801B70109950F9097
:1027F0000F90CF91DF911F910F91FF90EF9008956F
:102800002AE534E0FC013183208308952AE534E091
:10281000FC01318320830E9466220895CF93DF93C9
:10282000FC018AE594E091838083738362835583FE
:102830004483DF01AC5BBF4F1D921C92DF01AA5B9A
:10284000BF4F1D921C92DF01AE5BBF4F8FEF9FEF1A
:102850008D939C93CF01885B9F4FDC0186E4ED0153
:1028600019928A95E9F736968FE090E02FEF3FEFC7
:1028700011921192358F248F0197D1F7DF91CF916B
:102880000895DC0112968D919C911397DC01ED91D6
:10289000FC910190F081E02D09950895FC01EE5B1B
:1028A000FF4F4081518157FD0EC0FC01B49620E0DE
:1028B00030E0819191918617970739F02F5F3F4F54
:1028C00042175307B4F72FEF3FEFC9010895CF9296
:1028D000DF92EF92FF920F931F93CF93DF938C01C0
:1028E000EB01CB010E94C1127C01E881F9810480D7
:1028F000F581E02DCE0109956C01C801B7010E9458
:102900004E14FC013396EE0FFF1FE00FF11F808184
:1029100091810097B1F400D000D08EE391E0ADB783
:10292000BEB712969C938E9311971496FC92EE92DA
:1029300013970E94CC2F0F900F900F900F9080E074
:1029400015C088E4E82EF12CE00EF11ECE01B7018F
:102950000E94DB13F80184819581DC01ED91FC91EB
:102960000480F581E02DB701A6010995DF91CF9193
:102970001F910F91FF90EF90DF90CF900895EF920D
:10298000FF920F931F93DF93CF9300D000D0CDB76A
:10299000DEB78C017B011416150634F5FB01828528
:1029A0009385A485B58589839A83AB83BC83CE0147
:1029B000019660E070E04AE050E00E94972E9B0193
:1029C000AC01C801B9010E944E14FC013396EE0F10
:1029D000FF1FE00FF11F0190F081E02D309721F0F3
:1029E000C70109959C0102C020E030E0C9010F90A9
:1029F0000F900F900F90CF91DF911F910F91FF904B
:102A0000EF900895EF92FF920F931F93DF93CF9370
:102A100000D0CDB7DEB78C01DC0112968D919C9170
:102A2000139738E4E32EF12CE00EF11EDC01ED915A
:102A3000FC910280F381E02DB701AE014F5F5F4F43
:102A4000099549815A811416150634F4C801B70155
:102A50000E94BF149C0102C020E030E0C9010F9029
:102A60000F90CF91DF911F910F91FF90EF900895FC
:102A7000EF92FF920F931F93CF93DF938C01EB01A3
:102A80007A0177FF05C000D000D082E691E00AC04D
:102A90000E944E14FFEF8F3F9F0791F000D000D0AF
:102AA0008BE791E0EDB7FEB792838183D483C38334
:102AB0000E94CC2F0F900F900F900F9080E01BC0C2
:102AC000D801AE5BBF4FED91FC911197CF010196FC
:102AD0008D939C93DF011496AA0FBB1FA00FB11F0B
:102AE0001196FC92EE927396EE0FFF1FE00FF11F0E
:102AF000D183C08381E0DF91CF911F910F91FF902F
:102B0000EF90089522E634E0FC013183208308959C
:102B100022E634E0FC01318320830E94662208957E
:102B200022E634E0FC013183208308952EE634E070
:102B3000FC013183208308952EE634E0FC013183CB
:102B400020830E94662208952EE634E0FC01318342
:102B50002083089528E734E0FC0131832083089521
:102B600028E734E0FC01318320830E946622089527
:102B7000FC01EA5AFF4F808191810895FC01E85AD7
:102B8000FF4F80819181089587E160E371E125E045
:102B900030E040E050E00E94F8236EE170E080E019
:102BA00090E00E946D29089587E160E773E025E0D9
:102BB00030E040E050E00E94F8236AE070E080E0FE
:102BC00090E00E946D290895CF93DF93EC017B8301
:102BD0006A83FC01EA5AFF4F51834083FC01E85AA3
:102BE000FF4F31832083FC01EC5AFF4F8FEF9FEFA3
:102BF00091838083FE01E45AFF4F11821082FE010F
:102C0000E25AFF4F80E090E0DC0180839183A28351
:102C1000B383FE01EE59FF4F80839183A283B38378
:102C2000DE011496FE01BC9684E190E02FEF3FEFA9
:102C30001D921D92219331930197D1F70E949429FF
:102C40008EE795E040E855E260E070E00E94572290
:102C500086EE94E060E00E94E52186ED94E061E07C
:102C60000E94E52187E096E040E855E260E070E0F0
:102C70000E942D23CE010E94D4156CE370E080E009
:102C800090E00E946D29DF91CF91089528E734E00C
:102C9000FC01318320832FEF3FEF0E94E41508955C
:102CA00087E160E672E224E130E040E050E00E941B
:102CB000F8236EE170E080E090E00E946D2987E1EA
:102CC00060E672E224E130E040E050E00E94F82348
:102CD0006EE170E080E090E00E946D290895FC01B3
:102CE000EC5AFF4F4081518157FD0EC0FC01BC964C
:102CF00020E030E0819191918617970739F02F5F9E
:102D00003F4F42175307B4F72FEF3FEFC901089524
:102D1000EF92FF920F931F93CF93DF938C01EB0100
:102D20007A0177FF05C000D000D086EA91E00AC0A2
:102D30000E946F16FFEF8F3F9F0791F000D000D0E9
:102D40008FEB91E0EDB7FEB792838183D483C38389
:102D50000E94CC2F0F900F900F900F9080E01BC01F
:102D6000D801AC5ABF4FED91FC911197CF0101965C
:102D70008D939C93DF011396AA0FBB1FA00FB11F69
:102D80001196FC92EE927796EE0FFF1FE00FF11F67
:102D9000D183C08381E0DF91CF911F910F91FF908C
:102DA000EF9008950F931F93CF93DF938C01EB0166
:102DB00077FF0FC000D000D086EA91E0ADB7BEB774
:102DC00012969C938E93119714967C936E931397FF
:102DD00010C00E946F16BFEF8F3F9B0791F400D089
:102DE00000D085EE91E0EDB7FEB792838183D48366
:102DF000C3830E94CC2F0F900F900F900F9080E014
:102E000015C0FC013296EE0FFF1FE00FF11F80810D
:102E10009181F801E65AFF4F91838083DC01ED91A7
:102E2000FC910480F581E02D099581E0DF91CF913F
:102E30001F910F9108956F927F928F929F92AF9200
:102E4000BF92CF92DF92EF92FF920F931F93DF9387
:102E5000CF93CDB7DEB7E8970FB6F894DEBF0FBEBD
:102E6000CDBF6C017B0183E00E942C2A8601025AAF
:102E70001F4F9C01B901882777FD8095982F0E94EC
:102E80001D03D8016D937D938D939C93139784E0DC
:102E90000E942C2A86010E591F4FFC01BF01882772
:102EA00077FD8095982F0E941D03D8016D937D9327
:102EB0008D939C931397F601E45AFF4F8081918183
:102EC0000196918380838601065A1F4FF801808105
:102ED00091810097A9F00E948812882329F0D801D7
:102EE00011961C921E920CC0F80180819181DC0128
:102EF000ED91FC910084F185E02DB70109954BC15E
:102F0000F601828193810E944114882309F409C14A
:102F1000D60112968D919C9113970E9402155C0127
:102F20000E94C512F601EA5AFF4F208131818217B3
:102F3000930709F0E4C08601085A1F4FF801808109
:102F40009181FFEF8F3F9F0759F0C5010E94C91281
:102F5000D8012D913C9111978217930709F0CFC0AA
:102F6000C5010E94C1128130910509F5C5010E9479
:102F7000C912BC01F601E85AFF4F91838083F60124
:102F8000EA5AFF4F408151818E010F5F1F4FC801E8
:102F90000E94CC07F60182819381B8010E946714D8
:102FA000C6010E945016C8010E94B407A8C0C501FE
:102FB0000E94C1128601085A1F4F8330910531F5D6
:102FC000D8018D909C90F601EA5AFF4F6080718085
:102FD000C5010E94C1129C015DE0E52EF12CEC0EB2
:102FE000FD1EC701B401A3010E943E06F6018281C5
:102FF0009381B7010E9467148FEF9FEFD8018D93E3
:103000009C93C6010E945016C70150C0F8018081F0
:103010009181FFEF8F3F9F0709F471C0C5010E94A6
:10302000C112BC01C6010E946F1697FD42C0F60195
:10303000E65AFF4F80819181009739F0DC01ED91D4
:10304000FC910480F581E02D0995F601E85AFF4FC7
:10305000E080F180F601EA5AFF4F80809180C5013F
:103060000E94C1129C018E01035F1F4FC801B7016E
:10307000A4010E943E06F60182819381B8010E945C
:103080006714C5010E94C112BC01C6010E94D2167C
:10309000F601E65AFF4F80819181DC01ED91FC91B0
:1030A0000680F781E02DB5010995C8010E9426062A
:1030B00026C0F80100811181F601EA5AFF4F808095
:1030C0009180C5010E94C1129C0149E2E42EF12CBD
:1030D000EC0EFD1EC701B801A4010CEF1FEF0E940A
:1030E0004707D60112968D919C911397B7010E94C4
:1030F0006714C6010E94C415C7010E942F07A114BE
:10310000B10441F0D501ED91FC910280F381E02DF5
:10311000C501099562E370E080E090E00E946D29AE
:103120003AC0F601E45AFF4F8081918164E679E16B
:103130000E94DE2C009779F5C6010E94D415F60195
:10314000E85AFF4FE080F180BFEFEB16BFEFFB06C0
:1031500011F18E01055E1F4FF601EA5AFF4F6080A4
:103160007180F601E25AFF4F608171818281938103
:103170000E947D034B015C01C801B701A3019401CA
:103180000E94290AF60182819381B8010E94671486
:10319000C8010E94110AE8960FB6F894DEBF0FBE70
:1031A000CDBFCF91DF911F910F91FF90EF90DF90F6
:1031B000CF90BF90AF909F908F907F906F90089529
:1031C00086EE94E00E942821089586ED94E00E9406
:1031D00028210895FC01E25AFF4F608171818281AC
:1031E00093810E947D03CB010895FC01EE59FF4FAE
:1031F00060817181828193810E947D03CB0108955A
:10320000CF93DF93EC01FC01E25AFF4F60817181A3
:103210008281938120E030E844E554E40E94BD02BD
:10322000181684F4CE59DF4F688179818A819B8199
:1032300020E030E048E453E40E94ED02881F882734
:10324000881F01C080E0DF91CF910895CF93DF9375
:10325000EC01FC01EE59FF4F608171818281938105
:1032600020E030E844E554E40E94BD02181684F4DE
:10327000C25ADF4F688179818A819B8120E030E0EA
:1032800048E453E40E94ED02881F8827881F01C08C
:1032900080E0DF91CF9108951F93CF93DF93EC01EE
:1032A000FC01E25AFF4F608171818281938120E0AD
:1032B00030E844E554E40E94BD0218167CF4CE596F
:1032C000DF4F11E0688179818A819B8120E030E8BD
:1032D00044E554E40E94BD0218160CF010E0812F62
:1032E000DF91CF911F910895CF93DF93EC01FC0103
:1032F000E25AFF4F608171818281938120E030E04A
:1033000048E453E40E94ED0287FF10C0CE59DF4F1E
:10331000688179818A819B8120E030E048E453E430
:103320000E94ED02881F8827881F01C080E0DF917E
:10333000CF910895AF92BF92CF92DF92EF92FF921A
:103340000F931F93CF93DF93EC01FC01E25AFF4FE1
:10335000A080B180C280D380C601B50120E030E8F2
:103360004BE354E40E94ED0287FF2FC0C601B50174
:1033700020E030E046E653E40E94BD0218162CF52A
:10338000FE01EE59FF4FE080F18002811381C801F8
:10339000B70120E030E84BE354E40E94ED0287FFE0
:1033A0000AC0C801B70120E030E046E653E40E94BD
:1033B000BD02181684F1C801B70120E030E844E5E9
:1033C00054E40E94BD02181634F1C601B50120E094
:1033D00030E844E554E40E94BD021816F4F4CE59D6
:1033E000DF4FA880B980CA80DB80C601B50120E02C
:1033F00030E84BE354E40E94ED0287FF0EC011E079
:10340000C601B50120E030E046E653E40E94BD026B
:10341000181624F002C011E001C010E0812FDF91E6
:10342000CF911F910F91FF90EF90DF90CF90BF90C1
:10343000AF900895FC0182819381089580E090E02F
:10344000A8ECB2EC8093CE049093CF04A093D00468
:10345000B093D10408950F931F93CF93DF93FC0192
:10346000158214828C01005B1F4F84819581873403
:103470009105BCF4D8012D913C91119782179307C7
:1034800094F4EB01C80FD91F8E0F9F1FDC01169615
:103490008C91169788838481958101969583848386
:1034A000E4CF15821482DF01A25BBF4F1D921C92F4
:1034B00084819581DA0111969C938E93E05BFF4F96
:1034C00011821082DF91CF911F910F910895CF92B9
:1034D000DF92EF92FF920F931F93CF93DF938A01B6
:1034E0009A01215030402634310538F5DC0115961B
:1034F0005C934E931497E62EF72EC0E0D0E02CE4B8
:10350000C22ED12CC80ED91EF60180819181D7011F
:103510006D917D01DC01ED91FC910190F081E02D38
:1035200009952196C017D1077CF364E170E080E033
:1035300090E00E946D2981E001C080E0DF91CF9191
:103540001F910F91FF90EF90DF90CF900895AF9271
:10355000BF92CF92DF92EF92FF920F931F93DF9370
:10356000CF9300D000D00F92CDB7DEB78C01FC0115
:10357000E05BFF4F80819181181619060CF447C05B
:103580004CE4A42EB12CA00EB11E3EE4E32EF12C8F
:10359000E00EF11ED5018D919C91DC01ED91FC9125
:1035A0000680F781E02D0995009709F443C0F701E3
:1035B000C080D180F6E4CF16D104E4F5D5018D9119
:1035C0009C91DC01ED91FC910084F185E02D099541
:1035D000F801EC0DFD1D8683F70180819181019634
:1035E00091838083D7CF3D912191321729F40196A1
:1035F00086309105C1F72FC0F801E25BFF4F1182C1
:103600001082F801E05BFF4F1182108202C081E05E
:1036100001C080E00F900F900F900F900F90CF910E
:10362000DF911F910F91FF90EF90DF90CF90BF90AF
:10363000AF900895F801E25BFF4F808191818A315C
:1036400091053CF3D8011696E0911403F09115030F
:1036500080E090E0C8CF1D82F80184859585A6851D
:10366000B78589839A83AB83BC83CE01019660E0E2
:1036700070E04AE050E00E94972E9B01F801E05B69
:10368000FF4F71836083D801A25BBF4F8D919C91E6
:103690001197821793070CF4B7CF81E01216130627
:1036A0000CF4B8CFB6CFCF93DF93EC0180E894E071
:1036B000998388830E969B838A83CE0102960E940B
:1036C0008215CE010E949615DF91CF910895CF9378
:1036D000DF93EC010E94531BCE010E946622DF9112
:1036E000CF910895CF93DF93EC010E94A415CE01F2
:1036F00002960E94901580E894E0998388830E9644
:103700009B838A831D821C82FE01E25BFF4F118234
:103710001082FE01E05BFF4F11821082C45BDF4F1D
:1037200087E096E099838883DF91CF91089580E0C8
:1037300090E0A8ECB2EC8093D2049093D304A093D1
:10374000D404B093D504089502970E94671B08958E
:1037500002970E94531B089502970E94A71A08958A
:1037600002970E942B1A08958093E900EBEEF0E097
:10377000808181608083EDEEF0E010826093EC0048
:1037800040838091EE00881F8827881F08958091CC
:10379000570687FF13C004C0809156068823B9F0EE
:1037A0008091E80082FFF8CF8091E8008B778093CA
:1037B000E800089580915606882349F08091E8003A
:1037C00080FFF8CF8091E8008E778093E80008951D
:1037D0008091E4009091E50044E62091EC0020FF08
:1037E00005C02091E80020FF05C01AC02091E80024
:1037F00022FD16C0209156062223A1F02530A1F00B
:103800002091EB0025FD12C02091E4003091E500ED
:103810002817390711F3442359F04150C901DDCF6E
:1038200080E0089582E0089583E0089581E008959E
:1038300084E008950E94721C0E947A1C8091D80036
:10384000982F9F779093D80080688093D8008AE45F
:1038500082BF80E189BD89B5826089BD09B400FE5F
:10386000FDCF8091D8008F7D8093D80010925606AE
:103870001092540610925306109252068091E00066
:103880008B7F8093E0008091D80081608093D80086
:1038900080E060E042E00E94B41B8091E1008E7FF6
:1038A0008093E1008091E20081608093E20080914A
:1038B000E20088608093E2008091E0008E7F809338
:1038C000E0008091D80080618093D8000895E7EDF2
:1038D000F0E080818160808381E0809355060E94C2
:1038E0001A1C0895E8EDF0E080818E7F80831092AD
:1038F000E20008951092DA001092E10008951F92FC
:103900000F920FB60F9211242F933F934F935F9313
:103910006F937F938F939F93AF93BF93EF93FF9397
:103920008091DA0080FF17C08091D80080FF13C01B
:103930008091DA008E7F8093DA008091D90080FF39
:1039400006C081E0809356060E94EF2704C01092C3
:1039500056060E94F0278091E10080FF1EC08091F2
:10396000E20080FF1AC08091E1008E7F8093E10029
:103970008091E2008E7F8093E2008091E20080617E
:103980008093E2008091D80080628093D80019BCB7
:1039900085E0809356060E946A1F8091E10084FFB3
:1039A0002FC08091E20084FF2BC080E189BD89B5E2
:1039B000826089BD09B400FEFDCF8091D8008F7D63
:1039C0008093D8008091E1008F7E8093E100809108
:1039D000E2008F7E8093E2008091E200816080931C
:1039E000E20080915406882321F48091E30087FF50
:1039F00002C084E001C081E0809356060E946A1FE5
:103A00008091E10083FF24C08091E20083FF20C009
:103A10008091E100877F8093E10082E080935606E9
:103A2000109254068091E1008E7F8093E100809196
:103A3000E2008E7F8093E2008091E20080618093BB
:103A4000E20080E060E042E00E94B41B0E946A1F36
:103A50008091E10082FF0BC08091E20082FF07C0ED
:103A60008091E1008B7F8093E1000E946A1FFF91AB
:103A7000EF91BF91AF919F918F917F916F915F91E6
:103A80004F913F912F910F900FBE0F901F9018955F
:103A90001F93DF93CF9300D0CDB7DEB7E7E5F6E015
:103AA0008091F100819386E0EF35F807C9F78091A6
:103AB000570620915806253009F484C0263040F47A
:103AC0002130A1F1213070F0233009F0F3C02EC075
:103AD000283009F4BDC0293009F4CDC0263009F0E2
:103AE000E9C094C0803821F0823809F0E3C008C0F2
:103AF0008091520690915306992371F082600CC018
:103B000080915B0687708093E9009091EB0081E0E3
:103B100095FF80E01092E9009091E800977F9093E4
:103B2000E8008093F1001092F1009DC0882319F005
:103B3000823009F0BFC090E08F719070009729F03B
:103B40008230910509F0B8C00BC0809159068130D0
:103B500009F0B2C0233009F080E0809353062CC0F6
:103B600080915906882341F520915B06277009F45E
:103B7000A3C02093E9008091EB0080FF1DC08091DD
:103B80005806833021F48091EB00806213C080914D
:103B9000EB0080618093EB0081E090E002C0880F31
:103BA000991F2A95E2F78093EA001092EA0080912B
:103BB000EB0088608093EB001092E9008091E800B0
:103BC000877F54C0882309F075C0109159061F776C
:103BD0008091E800877F8093E8000E94C71B809156
:103BE000E80080FFFCCF112311F083E001C082E0E8
:103BF000809356068091E3008078812B8093E300C8
:103C00008091E30080688093E30056C08058823042
:103C100008F050C08091590690915A0660915B0659
:103C2000AE014F5F5F4F0E946E22BC01009709F406
:103C300043C08091E800877F8093E80089819A8162
:103C40000E94CC1E8091E8008B778093E80034C0FE
:103C5000803881F58091E800877F8093E80080912B
:103C600054068093F1008091E8008E778093E800FD
:103C70000E94C71B21C08823E9F490915906923015
:103C8000D8F48091E800877F8093E80090935406F1
:103C90000E94C71B80915406882321F48091E30081
:103CA00087FF02C084E001C081E0809356060E9435
:103CB000F12702C00E94F6278091E80083FF0AC026
:103CC0008091EB0080628093EB008091E800877F19
:103CD0008093E8000F900F90CF91DF911F9108958E
:103CE000482F592FFA0180915D0690915E06861744
:103CF000970718F4BC0140E039C061157105D9F788
:103D00008091E8008E778093E800F5CF8091E800FD
:103D100083FD3CC08091E80082FD32C08091560650
:103D20008823B1F18091E80080FF20C09091F300DA
:103D30008091F200392F20E090E0822B932B06C077
:103D400041914093F10061507040019661157105F9
:103D500019F088309105A0F341E08830910509F011
:103D600040E08091E8008E778093E800611571054E
:103D700069F6442359F604C080915606882351F011
:103D80008091E80082FFF8CF80E0089581E00895F7
:103D900082E0089582E00895482F592F80915D06B2
:103DA00090915E068617970718F4BC01E0E03CC0CE
:103DB00061157105D9F78091E8008E778093E8004E
:103DC000F5CF8091E80083FD3FC08091E80082FD3F
:103DD00035C0809156068823C9F18091E80080FFA4
:103DE00023C09091F3008091F200392F20E090E001
:103DF000822B932B09C0FA014F5F5F4FE491E09350
:103E0000F1006150704001966115710519F088301C
:103E1000910588F3E1E08830910509F0E0E08091B8
:103E2000E8008E778093E8006115710551F6EE2366
:103E300041F604C080915606882351F08091E80035
:103E400082FFF8CF80E0089581E0089582E0089530
:103E500082E008956115710549F523C04091E8009D
:103E600043FD32C040915606442381F14091E80061
:103E700042FFF4CFE82FF92F07C08091F100819322
:103E8000CF016150704069F0CF015091F300409133
:103E9000F200352F20E050E0422B532B4115510505
:103EA00061F74091E8004B774093E8006115710598
:103EB000A9F604C080915606882351F08091E8004D
:103EC00080FFF8CF80E0089581E0089582E00895B2
:103ED00082E0089508951F9380915606882369F023
:103EE0001091E90017701092E9008091E80083FFBB
:103EF00002C00E94481D1093E9001F910895089583
:103F0000CF93DF93EC018091E80083FF6AC0888142
:103F100090E020915B0630915C062817390709F084
:103F200060C080915806813261F0823220F4803284
:103F300009F057C01CC0823291F1833209F051C0A0
:103F400040C080915706813A09F04BC08091E8004B
:103F5000877F8093E800CE010F9667E070E00E94B3
:103F6000701E8091E8008B778093E8003AC08091C2
:103F700057068132B1F58091E800877F8093E80091
:103F8000CE010F9667E070E00E942A1F8091E80042
:103F90008E778093E800CE010E947F1F22C080911F
:103FA00057068132F1F48091E800877F8093E80022
:103FB0000E94C71B809159068D87CE010E94FB2766
:103FC00010C080915706813261F48091E800877FAC
:103FD0008093E8000E94C71BCE01609159060E94A1
:103FE0007F1FDF91CF9108951F93CF93DF93EC0153
:103FF0000D96FC0189E0DF011D928A95E9F711E039
:104000008981181729F4EA81FB819C8181E007C02E
:104010008D81181731F4EE81FF81988580E062E090
:1040200008C08985181711F5EA85FB859C8581E014
:1040300063E0992311F044E001C040E06295660F0F
:10404000660F607C682B28E030E080E003C08F5F63
:10405000220F331F2E173F07D0F342608295807FD7
:10406000482B812F0E94B41B882329F01F5F173033
:1040700039F681E001C080E0DF91CF911F91089572
:10408000DF93CF930F92CDB7DEB7FC018091560638
:104090008430F9F427853089418952892115310509
:1040A00041055105B1F081818093E9008091E800DC
:1040B00085FD0BC08091E8008E778093E8006983CE
:1040C0000E94E81B6981882329F46093F10080E055
:1040D00001C082E00F90CF91DF910895FC018091A3
:1040E0005606843051F5278530894189528921153A
:1040F00031054105510509F181818093E9009091D5
:10410000F3008091F200392F20E090E0822B932B76
:104110000097A9F09091E8008091E8008E77809355
:10412000E80095FD0EC00E94E81B882359F4909189
:10413000E8009E779093E800089582E0089580E07B
:10414000089580E0089520915606243061F4FC0122
:10415000278530894189528921153105410551054D
:1041600011F00E946E200895FC0180915606843063
:1041700091F52785308941895289211531054105FD
:10418000510549F185818093E9008091E80082FF23
:1041900022C09091F3008091F200392F20E090E04E
:1041A000822B932B009721F02091F10030E002C088
:1041B0002FEF3FEF9091F3008091F200592F40E0F4
:1041C00090E0842B952B009741F48091E8008B7749
:1041D0008093E80002C02FEF3FEFC9010895EF92EE
:1041E000FF920F931F93FC01162FA72FF42EE22EA0
:1041F0000083118260E070E0CB016283738384836B
:10420000958366837783808791871287A387448706
:10421000558726873787812F61E00E94612B8F2D7C
:1042200061E00E94612B8E2D61E00E94612B812F45
:1042300060E00E94852B8F2D60E00E94852B8E2DE3
:1042400060E00E94852B1F910F91FF90EF900895E1
:10425000AF92BF92CF92DF92EF92FF920F931F9394
:10426000CF93DF93EC01D42EC52EB62EA72EE0906F
:10427000F604F090F7040091F8041091F904A601F7
:104280009501652F742F832F922FA80197010E940B
:10429000ED0287FD1FC0A6019501652F742F832FA6
:1042A000922F20E030E048EC52E40E94BD02181644
:1042B0005CF40F2EF0E0EF2EF0E0FF2EF8EC0F2F65
:1042C000F2E41F2FF02D06C09601C501E32EF22E59
:1042D000092F182F8A819B81AC81BD818E839F839A
:1042E000A887B987EA82FB820C831D838881882393
:1042F00021F417FB109517F91095C801B70120E0BC
:1043000030E048EC52E40E940F0220E030E04FE73A
:1043100053E40E941501162FE72E082FF92EA62E22
:10432000B72EC82ED92E2DEC3CEC4CEC5DE30E9450
:10433000BD0218166CF48C8561E00E94852B8E8579
:1043400060E00E94852B612F7E2D802F9F2D17C04E
:10435000612F7E2D802F9F2D2DEC3CEC4CEC5DEBE6
:104360000E94ED0287FF14C08C8560E00E94852BBF
:104370008E8561E00E94852BC601B50190580E9490
:104380007D039B01AC018A85B9010E94652A11C099
:104390008A8560E070E00E94652A8A8560E00E945C
:1043A000852B8C8560E00E94852B8E8560E00E94C5
:1043B000852B1982DF91CF911F910F91FF90EF9084
:1043C000DF90CF90BF90AF900895FC016083218172
:1043D000222331F442815381648175810E94282116
:1043E00008950F9380E090E0A8ECB2EC8093F6047F
:1043F0009093F704A093F804B093F90486ED94E049
:1044000066E170E044E150E025E130E001E00E9427
:10441000EF2086EE94E063E070E044E050E028E0B6
:1044200030E00E94EF200F910895CB010E949D275C
:104430000895CB010E949D270895DF93CF9300D06C
:10444000CDB7DEB71A8219826983CE0101960E9428
:104450009D270F900F90CF91DF9108951F93CF93D9
:10446000DF93182F9B01EB01C058DF4FE881F981E2
:10447000CF01019660E870E00E94DE2CAC01D9010A
:10448000AE57BF4F8D919C9111974817590729F04E
:10449000E20FF31F108359834883DF91CF911F915F
:1044A0000895862F6AEF74E00E942E2208950895E1
:1044B0008AE994E090937F0580937E058AEF94E0EB
:1044C00090938205809381050895FFCF009711F0A6
:1044D0000E94FE2D08950E94642D0895923049F0A7
:1044E000933061F09130A1F020E030E0E0E0F0E0C6
:1044F00013C02EE330E0EEEBF0E00EC0882319F499
:10450000ECEFF0E002C0E0E0F1E0249130E004C024
:1045100022E130E0ECEAF0E0DA011196FC93EE9350
:10452000C9010895FC0182819381FC01E058FF4F8D
:10453000208131818E579F4FFC0180819181281B02
:10454000390B2F773070C9010895FC018281938166
:10455000FC01EE57FF4F20813181FC01E058FF4FF5
:10456000408151814217530731F0820F931FFC01A4
:10457000208130E002C02FEF3FEFC9010895DC0138
:1045800012962D913C911397F901EE57FF4F8081C0
:104590009181D901A058BF4F4D915C911197481757
:1045A000590759F0280F391FD9012C9101968F779F
:1045B00090709183808330E002C02FEF3FEFC901FC
:1045C0000895DC0112968D919C911397FC01E0589F
:1045D000FF4F8E579F4FDC018D919C9111979183D6
:1045E00080830895FC01A085B18521898C9190E09C
:1045F000022E02C0959587950A94E2F780FFF6CFC8
:104600000484F585E02D608308951F920F920FB604
:104610000F9211242F933F934F935F936F937F9348
:104620008F939F93AF93BF93EF93FF938091CE00AF
:1046300063E875E00E942E22FF91EF91BF91AF9148
:104640009F918F917F916F915F914F913F912F91AA
:104650000F900FBE0F901F901895CF93DF93EC0132
:104660009A01AB01E885F985203081EE380780E0BA
:10467000480780E0580709F445C081E090E00A88C7
:1046800002C0880F991F0A94E2F7808360E079E006
:104690008DE390E00E94F12C21503040404050408A
:1046A0005695479537952795EC81FD813083EE81AE
:1046B000FF812083EA85FB85408181E090E09C01B9
:1046C0000E8402C0220F331F0A94E2F7422B40836C
:1046D000EA85FB8540819C010F8402C0220F331FB5
:1046E0000A94E2F7422B4083EA85FB852081088803
:1046F00002C0880F991F0A94E2F7282B2083DF91CC
:10470000CF910895108220E130E0CECF84EA94E08A
:10471000909308068093070683E895E090930A0635
:10472000809309068DEC90E090930C0680930B0625
:104730008CEC90E090930E0680930D0688EC90E050
:104740009093100680930F0689EC90E090931206E8
:10475000809311068EEC90E09093140680931306DC
:1047600084E08093150683E08093160687E08093AB
:10477000170685E08093180681E080931906089556
:104780000F931F93CF93DF93EC01062F172F07C0D2
:10479000E881F9810190F081E02DCE010995F801C1
:1047A00061918F016623A1F7DF91CF911F910F9146
:1047B0000895EF92FF920F931F93CF93DF937C01A5
:1047C000EB018A010BC06991D701ED91FC91019039
:1047D000F081E02DC7010995015010400115110528
:1047E00091F7DF91CF911F910F91FF90EF90089576
:1047F0002F923F924F925F926F927F928F929F92F1
:10480000AF92BF92DF92EF92FF920F931F93DF93CD
:10481000CF9300D000D0CDB7DEB71B0129833A83F8
:104820004B835C8390911603981721F09F3F09F00A
:1048300071C204C0E8E2F1E0D490D4C080931603C2
:10484000E8E2F1E0D4909D2D9F3F09F463C29230DD
:1048500009F456C0933034F4DD2061F0913009F052
:10486000C1C028C0AD2DA33009F470C0A43009F038
:10487000B9C092C014BC15BC94B5926094BD95B5F6
:10488000916095BD282F30E0F901ED5AFE4FE4917B
:10489000F0E0EE0FFF1FE95CFE4F4591549140930D
:1048A0001E0650931F0623593E4FF9012491209371
:1048B00020069AC010928000109281009091810091
:1048C0009860909381009091810091609093810015
:1048D000282F30E0F901ED5AFE4FE491F0E0EE0FA1
:1048E000FF1FE95CFE4F459154914093250650937C
:1048F000260623593E4FF90124912093270674C0C0
:104900001092B0001092B1009091B000926090931C
:10491000B0009091B10091609093B100282F30E0E9
:10492000F901ED5AFE4FE491F0E0EE0FFF1FE95C54
:10493000FE4F4591549140932C0650932D062359D8
:104940003E4FF901249120932E064EC01092900004
:1049500010929100909191009860909391009091A5
:104960009100916090939100282F30E0F901ED5A69
:10497000FE4FE491F0E0EE0FFF1FE95CFE4F459122
:104980005491409333065093340623593E4FF90116
:1049900024912093350628C01092C0001092C100C7
:1049A0009091C10098609093C1009091C100916076
:1049B0009093C100282F30E0F901ED5AFE4FE491A9
:1049C000F0E0EE0FFF1FE95CFE4F459154914093DC
:1049D0003A0650933B0623593E4FF9012491209308
:1049E0003C0602C0D7FC96C161E00E94612BDD202D
:1049F00021F0FD2DF23009F0C1C04101AA24BB24F1
:104A000060E072E18AE790E0A50194010E94F12C38
:104A100029013A0179018A010894E108F1080109A4
:104A200011098FEFE816F1040105110509F008F4EA
:104A300098C060E472E48FE090E0A50194010E94C8
:104A4000F12C79018A010894E108F10801091109A2
:104A50009D2D9230C9F4AFEFEA16F104010511055E
:104A600009F008F485C060E970ED83E090E0A501ED
:104A700094010E94F12C79018A010894E108F1085F
:104A80000109110983E001C082E0BFEFEB16F104D8
:104A90000105110509F008F465C068E478EE81E0CD
:104AA00090E0A50194010E94F12C79018A010894FB
:104AB000E108F10801091109DD20E1F0ED2DE230F6
:104AC000D9F4FFEFEF16F1040105110509F008F420
:104AD00051C064E274EF80E090E0A50194010E946F
:104AE000F12C79018A010894E108F1080109110902
:104AF00085E003C083E001C084E09FEFE916F10484
:104B00000105110579F170F162E17AE780E090E04A
:104B1000A50194010E94F12C79018A010894E10811
:104B2000F10801091109DD2011F484E001C086E0DB
:104B3000AFEFEA16F10401051105A1F098F0830129
:104B400072019AE016950795F794E7949A95D1F734
:104B50000894E108F10801091109DD2031F087E02E
:104B60000AC081E0DD2011F006C085E085BD50C09F
:104B700082E001C084E08093B1004AC04101AA24D0
:104B8000BB2460E072E18AE790E0A50194010E94F5
:104B9000F12C79018A010894E108F1080109110951
:104BA000B0E0EB16B0E0FB06B1E00B07B0E01B078E
:104BB00088F068E478EE81E090E0A50194010E941D
:104BC000F12C79018A010894E108F1080109110921
:104BD00093E001C091E0ED2DE13039F48091810046
:104BE000887F892B8093810013C0FD2DF33039F429
:104BF00080919100887F892B8093910009C08D2D31
:104C0000843031F48091C100887F892B8093C1006A
:104C100089819A81AB81BC810097A105B10591F092
:104C2000B101660F771F80E090E029813A814B81C6
:104C30005C810E94BF2C28EE33E040E050E00E94EF
:104C4000F12C04C02FEF3FEF4FEF5FEF9D2D92301F
:104C500081F1933034F4DD2059F0913009F05AC0DD
:104C600016C0AD2DA330A9F1A43009F053C043C044
:104C7000E7BC20931A0630931B0640931C06509302
:104C80001D0680916E00826080936E0043C0F0929A
:104C90008900E092880020932106309322064093F9
:104CA00023065093240680916F00826080936F00EA
:104CB00031C0E092B3002093280630932906409338
:104CC0002A0650932B0680917000826080937000BA
:104CD00021C0F0929900E092980020932F06309323
:104CE0003006409331065093320680917100826005
:104CF000809371000FC0E092CF002093360630936E
:104D000037064093380650933906809172008064CC
:104D1000809372000F900F900F900F90CF91DF91C2
:104D20001F910F91FF90EF90DF90BF90AF909F90F9
:104D30008F907F906F905F904F903F902F9008954D
:104D40008230B9F0833028F4882351F0813051F556
:104D50000AC0843011F18430E8F0853019F520C0A4
:104D600010926E00089580916F008D7F80936F0088
:104D70000895809170008D7F8093700081E0809312
:104D8000B0008091B100887F84608093B100109260
:104D9000B300089510927100089510927200089562
:104DA0001092730008951F920F920FB60F92112464
:104DB0002F933F934F935F936F937F938F939F9323
:104DC000AF93BF93EF93FF9380911A0690911B06C8
:104DD000A0911C06B0911D060097A105B10551F1E7
:104DE000E0911E06F0911F06808190912006892790
:104DF000808380911A0690911B06A0911C06B091A9
:104E00001D06181619061A061B060CF580911A06BF
:104E100090911B06A0911C06B0911D060197A10957
:104E2000B10980931A0690931B06A0931C06B093B9
:104E30001D060DC080E00E94A026E0911E06F091A4
:104E40001F06908180912006809589238083FF91A1
:104E5000EF91BF91AF919F918F917F916F915F91F2
:104E60004F913F912F910F900FBE0F901F9018956B
:104E70001F920F920FB60F9211242F933F934F93CF
:104E80005F936F937F938F939F93AF93BF93EF93B2
:104E9000FF938091210690912206A0912306B09164
:104EA00024060097A105B10551F1E0912506F09186
:104EB000260680819091270689278083809121068C
:104EC00090912206A0912306B09124061816190687
:104ED0001A061B060CF58091210690912206A091DE
:104EE0002306B09124060197A109B10980932106F8
:104EF00090932206A0932306B09324060DC081E070
:104F00000E94A026E0912506F091260690818091CE
:104F10002706809589238083FF91EF91BF91AF9100
:104F20009F918F917F916F915F914F913F912F91C1
:104F30000F900FBE0F901F9018951F93CF93DF9384
:104F4000EC0110E005C087E193E00E9440201F5F64
:104F5000FE01E10FF11D60816623A9F7DF91CF917A
:104F60001F9108951F920F920FB60F9211242F9345
:104F70003F934F935F936F937F938F939F93AF93E1
:104F8000BF93EF93FF9387E193E00E94B420BC01AD
:104F900097FD04C08EE795E00E94512287E193E0DF
:104FA0000E94A3200E946B1F90EC88E10FB6F8943A
:104FB000A89580936000909360000FBEFF91EF91E1
:104FC000BF91AF919F918F917F916F915F914F9121
:104FD0003F912F910F900FBE0F901F90189508953D
:104FE000089587E193E00E94F41F089587E193E01C
:104FF0000E94801F089520912F0330913003309339
:105000002E0320932D03FC01858580FF07C081E0DE
:1050100090E09093300380932F0304C010923003EC
:1050200010922F0380912F03909130030097F1F499
:1050300080912D0390912E0381309105B9F4F8945D
:1050400098E088E10FB6F894A8958093600090935B
:1050500060000FBEFFCFE0912D03F0912E0330973B
:1050600061F48CED8EBB87EA8ABD099580912F0390
:10507000909130038130910571F308951F920F9242
:105080000FB60F9211242F933F934F935F936F931B
:105090007F938F939F93AF93BF93EF93FF938091F1
:1050A0003D0690913E06009729F0E0913D06F09173
:1050B0003E060995FF91EF91BF91AF919F918F911E
:1050C0007F916F915F914F913F912F910F900FBE04
:1050D0000F901F9018951F920F920FB60F921124E8
:1050E0002F933F934F935F936F937F938F939F93F0
:1050F000AF93BF93EF93FF9380913F06909140064B
:10510000009729F0E0913F06F09140060995FF9144
:10511000EF91BF91AF919F918F917F916F915F912F
:105120004F913F912F910F900FBE0F901F901895A8
:105130001F920F920FB60F9211242F933F934F930C
:105140005F936F937F938F939F93AF93BF93EF93EF
:10515000FF938091410690914206009729F0E091DB
:105160004106F09142060995FF91EF91BF91AF91F1
:105170009F918F917F916F915F914F913F912F916F
:105180000F900FBE0F901F9018951F920F920FB6A1
:105190000F9211242F933F934F935F936F937F93BD
:1051A0008F939F93AF93BF93EF93FF9380914306A9
:1051B00090914406009729F0E0914306F09144064F
:1051C0000995FF91EF91BF91AF919F918F917F9141
:1051D0006F915F914F913F912F910F900FBE0F9064
:1051E0001F90189580E090E0A8ECB2EC8093410607
:1051F00090934206A0934306B093440608951F92ED
:105200000F920FB60F9211242F933F938F939F937A
:10521000AF93BF938091490690914A06A0914B06A7
:10522000B0914C0630914D060196A11DB11D232F62
:105230002D5F2D3720F02D570196A11DB11D209314
:105240004D068093490690934A06A0934B06B0936F
:105250004C068091450690914606A0914706B09174
:1052600048060196A11DB11D809345069093460600
:10527000A0934706B0934806BF91AF919F918F913D
:105280003F912F910F900FBE0F901F9018959FB7D1
:10529000F89420914506309146064091470650917A
:1052A000480686B5A89B06C08F3F21F02F5F3F4F71
:1052B0004F4F5F4F9FBF542F432F322F2227280F6E
:1052C000311D411D511D82E0220F331F441F551F08
:1052D0008A95D1F7B901CA010895EF92FF920F9311
:1052E0001F93CF93DF937B018C010E944729EB0131
:1052F0000FC00E9447296C1B7D0B83E0683E780736
:1053000038F00894E108F10801091109C851DC4F8F
:10531000E114F1040105110561F7DF91CF911F91AF
:105320000F91FF90EF90089584B7877F84BF88E145
:105330000FB6F89480936000109260000FBE80E07A
:1053400090E020E80FB6F89420936100809361000C
:105350000FBE8EB38C3D09F078C08AB5863A09F04D
:1053600074C004C08AB5873A09F073C081E08093A5
:10537000550694E09093560680935406789484B52D
:10538000826084BD84B5816084BD85B58B7F85BD19
:1053900085B5826085BD85B5816085BD80916E00D3
:1053A000816080936E0084B58F7B84BD85B5877FD7
:1053B00085BD80916F008D7F80936F008091C000CC
:1053C0008F7B8093C0008091C0008F7E8093C0004F
:1053D0008091C00082608093C0008091C000816095
:1053E0008093C0008091C100877F8093C10080912D
:1053F000C1008B7F8093C1008091C1008D7F80931D
:10540000C1008091C10081608093C10080917A00C9
:10541000846080937A0080917A00826080937A0021
:1054200080917A00816080937A0080917A00806810
:1054300080937A0090EC88E10FB6F894A895809359
:105440006000909360000FBE08958EB38C3D09F408
:1054500089CF0E94671C92CFE82FF0E0EF55FE4FF6
:10546000E491F0E0E755FE4FE4918091310390E044
:1054700026E0880F991F2A95E1F780937C00909190
:105480007C008E2F8F71892B80937C00E5FF04C0F8
:1054900080917B00806203C080917B008F7D809330
:1054A0007B0080917A00806480937A0080917A00FA
:1054B00086FDFCCF2091780030917900932F80E019
:1054C00030E0282B392BC90108951F93CF93DF9328
:1054D000182FEB0161E00E94612B209709F48FC027
:1054E000CF3FD10509F48EC0E12FF0E0E957FE4F20
:1054F000E491E73009F44AC0E83080F4E33051F138
:10550000E43030F4E130E1F0E23009F075C01DC064
:10551000E43051F1E63009F06FC030C0EA3009F4F0
:1055200051C0EB3030F4E830C9F1E93009F064C023
:105530003FC0EB3009F450C0EC3009F05DC054C0FE
:1055400084B5806884BDC7BD61C084B5806284BDF8
:10555000C8BD5CC080918000806880938000D0933B
:105560008900C093880052C080918000806280933F
:105570008000D0938B00C0938A0048C08091B00017
:1055800080688093B000C093B30040C08091B000A9
:1055900080628093B000C093B40038C080919000C6
:1055A000806880939000D0939900C09398002EC09B
:1055B00080919000806280939000D0939B00C09374
:1055C0009A0024C080919000886080939000D093CE
:1055D0009D00C0939C001AC08091C0008068809399
:1055E000C000C093CF0012C08091C0008062809341
:1055F000C000C093D0000AC0C038D1051CF4812F70
:1056000060E002C0812F61E00E94852BDF91CF9185
:105610001F9108958730A9F1883080F48330E1F03C
:10562000843030F4813011F1823009F049C021C05A
:105630008430B1F0863009F043C01FC08A3079F160
:105640008B3028F4883019F18930D1F524C08B30A3
:1056500061F18C30A9F52FC0809180008F7703C055
:10566000809180008F7D80938000089584B58F772E
:1056700002C084B58F7D84BD08958091B0008F777E
:1056800003C08091B0008F7D8093B0000895809119
:1056900090008F7707C0809190008F7D03C080912C
:1056A0009000877F8093900008958091C0008F774D
:1056B0008093C00008958091C0008F7D8093C000CA
:1056C000089590E0FC01E359FE4F2491FC01ED5A4E
:1056D000FE4FE491EE23C1F0F0E0EE0FFF1FE75D17
:1056E000FE4F85919491DC01662341F49FB7F894B5
:1056F0008C91209582238C939FBF08959FB7F89437
:105700008C91822B8C939FBF08950F931F93DF93EF
:10571000CF930F92CDB7DEB7282F30E0F901E957CC
:10572000FE4F8491F901E359FE4F14912D5A3E4FDB
:10573000F90104910023E9F0882321F069830E9494
:105740000A2B6981E02FF0E0EE0FFF1FE95CFE4FAE
:1057500085919491DC01662331F49FB7F8948C9184
:105760001095812304C09FB7F8948C91812B8C9362
:105770009FBF0F90CF91DF911F910F910895CF930D
:10578000DF93EC0161E070E04AE658E00E943815D2
:10579000CE0162E070E041E158E00E943815CE0190
:1057A00063E070E043EC58E00E943815CE0164E0FD
:1057B00070E04CE957E00E943815CE0165E070E0DA
:1057C0004BE856E00E943815CE0169EC70E044EDDC
:1057D0005BE00E943815CE016AEC70E041E959E0C7
:1057E0000E943815CE016DEC70E04EE85CE00E943E
:1057F0003815CE016EEC70E047EE5CE00E94381583
:10580000CE016FEC70E045E35CE00E943815CE01FC
:105810006BEC70E048E359E00E943815CE016CEC67
:1058200070E04BEE5AE00E943815CE016FE873E04D
:1058300046E75AE00E94381580E090E0DF91CF9172
:1058400008956F927F928F929F92AF92BF92CF9264
:10585000DF92EF92FF920F931F93DF93CF93CDB719
:10586000DEB7CF57D1400FB6F894DEBF0FBECDBF25
:105870008E01065C1F4FC8010E94721B82EFC82E6A
:10588000D12CCC0EDD1EC601BE01645C7F4FA80189
:105890000E940E141CE8E12EF12CEC0EFD1EC70137
:1058A000B60144E050E00E944616C6010E94BF2B9C
:1058B000C7010E94D4156E010894C11CD11CC601F9
:1058C000B7010E94850EB3E1AB2EB12CAC0EBD1E0C
:1058D000C501B7010E94380EA0E28A2E912C8C0ED1
:1058E0009D1EC401B7010E945012FDE26F2E712C63
:1058F0006C0E7D1EC301B7010E941C118E01065F54
:105900001F4FC801B7010E94EC0FC70169EC70E09E
:10591000A6010E948816C7016AEC70E0A5010E94EA
:105920008816C7016EEC70E0A4010E948816C701BA
:105930006DEC70E0A3010E948816C7016FEC70E067
:10594000A8010E948816CE2C0F2D8C2D902F61E07F
:1059500070E00E941B1761E070E080E090E00E9420
:105960006D29F3CF80E090E0A8ECB2EC80934E0676
:1059700090934F06A0935006B09351060895629FEE
:10598000D001739FF001829FE00DF11D649FE00D37
:10599000F11D929FF00D839FF00D749FF00D659F98
:1059A000F00D9927729FB00DE11DF91F639FB00D97
:1059B000E11DF91FBD01CF011124089597FB092EA8
:1059C00007260AD077FD04D02ED006D000201AF486
:1059D000709561957F4F0895F6F7909581959F4F4B
:1059E0000895A1E21A2EAA1BBB1BFD010DC0AA1F20
:1059F000BB1FEE1FFF1FA217B307E407F50720F038
:105A0000A21BB30BE40BF50B661F771F881F991FB2
:105A10001A9469F760957095809590959B01AC01FB
:105A2000BD01CF010895AA1BBB1B51E107C0AA1FEE
:105A3000BB1FA617B70710F0A61BB70B881F991F2F
:105A40005A95A9F780959095BC01CD0108952F92A4
:105A50003F924F925F926F927F928F929F92AF92FE
:105A6000BF92CF92DF92EF92FF920F931F93CF934B
:105A7000DF93CDB7DEB7CA1BDB0B0FB6F894DEBFE2
:105A80000FBECDBF09942A88398848885F846E8408
:105A90007D848C849B84AA84B984C884DF80EE8052
:105AA000FD800C811B81AA81B981CE0FD11D0FB65B
:105AB000F894DEBF0FBECDBFED010895EE0FFF1FBE
:105AC0000590F491E02D0994CF93DF9382309105F6
:105AD00010F482E090E0E0916106F091620640E00F
